{
  "contractName": "AdvertisingDAO",
  "abi": [
    {
      "inputs": [
        {
          "internalType": "address",
          "name": "_domainDAOAddress",
          "type": "address"
        }
      ],
      "payable": false,
      "stateMutability": "nonpayable",
      "type": "constructor"
    },
    {
      "constant": false,
      "inputs": [
        {
          "internalType": "uint256",
          "name": "bidID",
          "type": "uint256"
        },
        {
          "internalType": "bytes32",
          "name": "info",
          "type": "bytes32"
        }
      ],
      "name": "createBid",
      "outputs": [],
      "payable": true,
      "stateMutability": "payable",
      "type": "function"
    },
    {
      "constant": false,
      "inputs": [
        {
          "internalType": "uint256",
          "name": "bidID",
          "type": "uint256"
        },
        {
          "internalType": "bool",
          "name": "approved",
          "type": "bool"
        }
      ],
      "name": "vote",
      "outputs": [
        {
          "internalType": "string",
          "name": "",
          "type": "string"
        }
      ],
      "payable": false,
      "stateMutability": "nonpayable",
      "type": "function"
    },
    {
      "constant": true,
      "inputs": [
        {
          "internalType": "uint256",
          "name": "bidID",
          "type": "uint256"
        }
      ],
      "name": "getPaymentSplitter",
      "outputs": [
        {
          "internalType": "address",
          "name": "",
          "type": "address"
        }
      ],
      "payable": false,
      "stateMutability": "view",
      "type": "function"
    },
    {
      "constant": true,
      "inputs": [
        {
          "internalType": "uint256",
          "name": "bidID",
          "type": "uint256"
        }
      ],
      "name": "getEscrow",
      "outputs": [
        {
          "internalType": "address",
          "name": "",
          "type": "address"
        }
      ],
      "payable": false,
      "stateMutability": "view",
      "type": "function"
    }
  ],
  "bytecode": "0x608060405234801561001057600080fd5b50604051612d1f380380612d1f8339818101604052602081101561003357600080fd5b8101908080519060200190929190505050806000806101000a81548173ffffffffffffffffffffffffffffffffffffffff021916908373ffffffffffffffffffffffffffffffffffffffff16021790555050612c8b806100946000396000f3fe60806040526004361062000061576000357c0100000000000000000000000000000000000000000000000000000000900480637d19e5961462000066578063c9d27afe14620000e5578063eac1b40f14620001ac578063f283f18b14620001e7575b600080fd5b3480156200007357600080fd5b50620000a3600480360360208110156200008c57600080fd5b810190808035906020019092919050505062000266565b604051808273ffffffffffffffffffffffffffffffffffffffff1673ffffffffffffffffffffffffffffffffffffffff16815260200191505060405180910390f35b348015620000f257600080fd5b506200012e600480360360408110156200010b57600080fd5b8101908080359060200190929190803515159060200190929190505050620002a6565b6040518080602001828103825283818151815260200191508051906020019080838360005b838110156200017057808201518184015260208101905062000153565b50505050905090810190601f1680156200019e5780820380516001836020036101000a031916815260200191505b509250505060405180910390f35b620001e560048036036040811015620001c457600080fd5b81019080803590602001909291908035906020019092919050505062000487565b005b348015620001f457600080fd5b5062000224600480360360208110156200020d57600080fd5b810190808035906020019092919050505062000b49565b604051808273ffffffffffffffffffffffffffffffffffffffff1673ffffffffffffffffffffffffffffffffffffffff16815260200191505060405180910390f35b60006001600083815260200190815260200160002060020160009054906101000a900473ffffffffffffffffffffffffffffffffffffffff169050919050565b606060008060009054906101000a900473ffffffffffffffffffffffffffffffffffffffff16905060008173ffffffffffffffffffffffffffffffffffffffff1663df133bca868660016040518463ffffffff167c01000000000000000000000000000000000000000000000000000000000281526004018084815260200183151515158152602001821515151581526020019350505050602060405180830381600087803b1580156200035957600080fd5b505af11580156200036e573d6000803e3d6000fd5b505050506040513d60208110156200038557600080fd5b810190808051906020019092919050505090506001811415620003ef57620003af85600162000b89565b6040518060400160405280600881526020017f617070726f7665640000000000000000000000000000000000000000000000008152509250505062000481565b600281141562000446576200040685600062000b89565b6040518060400160405280600881526020017f72656a65637465640000000000000000000000000000000000000000000000008152509250505062000481565b6040518060400160405280600781526020017f6e65757472616c00000000000000000000000000000000000000000000000000815250925050505b92915050565b60003411620004e2576040517f08c379a000000000000000000000000000000000000000000000000000000000815260040180806020018281038252603981526020018062002c1e6039913960400191505060405180910390fd5b60008060009054906101000a900473ffffffffffffffffffffffffffffffffffffffff1690508073ffffffffffffffffffffffffffffffffffffffff1663eac1b40f84846040518363ffffffff167c01000000000000000000000000000000000000000000000000000000000281526004018083815260200182815260200192505050600060405180830381600087803b1580156200058057600080fd5b505af115801562000595573d6000803e3d6000fd5b5050505060608173ffffffffffffffffffffffffffffffffffffffff16632a38d0af856040518263ffffffff167c01000000000000000000000000000000000000000000000000000000000281526004018082815260200191505060006040518083038186803b1580156200060957600080fd5b505afa1580156200061e573d6000803e3d6000fd5b505050506040513d6000823e3d601f19601f8201168201806040525060208110156200064957600080fd5b81019080805160405193929190846401000000008211156200066a57600080fd5b838201915060208201858111156200068157600080fd5b82518660208202830111640100000000821117156200069f57600080fd5b8083526020830192505050908051906020019060200280838360005b83811015620006d8578082015181840152602081019050620006bb565b50505050905001604052505050905060608273ffffffffffffffffffffffffffffffffffffffff1663384248f2866040518263ffffffff167c01000000000000000000000000000000000000000000000000000000000281526004018082815260200191505060006040518083038186803b1580156200075757600080fd5b505afa1580156200076c573d6000803e3d6000fd5b505050506040513d6000823e3d601f19601f8201168201806040525060208110156200079757600080fd5b8101908080516040519392919084640100000000821115620007b857600080fd5b83820191506020820185811115620007cf57600080fd5b8251866020820283011164010000000082111715620007ed57600080fd5b8083526020830192505050908051906020019060200280838360005b838110156200082657808201518184015260208101905062000809565b5050505090500160405250505090506000828233604051620008489062000f2b565b8080602001806020018473ffffffffffffffffffffffffffffffffffffffff1673ffffffffffffffffffffffffffffffffffffffff168152602001838103835286818151815260200191508051906020019060200280838360005b83811015620008c0578082015181840152602081019050620008a3565b50505050905001838103825285818151815260200191508051906020019060200280838360005b8381101562000904578082015181840152602081019050620008e7565b5050505090500195505050505050604051809103906000f0801580156200092f573d6000803e3d6000fd5b5090506000604051620009429062000f39565b604051809103906000f0801580156200095f573d6000803e3d6000fd5b5090508073ffffffffffffffffffffffffffffffffffffffff1663f340fa0134846040518363ffffffff167c0100000000000000000000000000000000000000000000000000000000028152600401808273ffffffffffffffffffffffffffffffffffffffff1673ffffffffffffffffffffffffffffffffffffffff1681526020019150506000604051808303818588803b158015620009fe57600080fd5b505af115801562000a13573d6000803e3d6000fd5b505050505062000a2262000f47565b60405180608001604052808981526020018473ffffffffffffffffffffffffffffffffffffffff1681526020018373ffffffffffffffffffffffffffffffffffffffff16815260200186815250905080600160008a81526020019081526020016000206000820151816000015560208201518160010160006101000a81548173ffffffffffffffffffffffffffffffffffffffff021916908373ffffffffffffffffffffffffffffffffffffffff16021790555060408201518160020160006101000a81548173ffffffffffffffffffffffffffffffffffffffff021916908373ffffffffffffffffffffffffffffffffffffffff160217905550606082015181600301908051906020019062000b3b92919062000f9b565b509050505050505050505050565b60006001600083815260200190815260200160002060010160009054906101000a900473ffffffffffffffffffffffffffffffffffffffff169050919050565b60006001600084815260200190815260200160002060020160009054906101000a900473ffffffffffffffffffffffffffffffffffffffff1690508073ffffffffffffffffffffffffffffffffffffffff166351cff8d96001600086815260200190815260200160002060010160009054906101000a900473ffffffffffffffffffffffffffffffffffffffff166040518263ffffffff167c0100000000000000000000000000000000000000000000000000000000028152600401808273ffffffffffffffffffffffffffffffffffffffff1673ffffffffffffffffffffffffffffffffffffffff168152602001915050600060405180830381600087803b15801562000c9657600080fd5b505af115801562000cab573d6000803e3d6000fd5b5050505060006001600085815260200190815260200160002060010160009054906101000a900473ffffffffffffffffffffffffffffffffffffffff169050821562000ea65760008060009054906101000a900473ffffffffffffffffffffffffffffffffffffffff16905060606001600087815260200190815260200160002060030180548060200260200160405190810160405280929190818152602001828054801562000db157602002820191906000526020600020905b8160009054906101000a900473ffffffffffffffffffffffffffffffffffffffff1673ffffffffffffffffffffffffffffffffffffffff168152602001906001019080831162000d66575b5050505050905060008090505b815181101562000e9d578373ffffffffffffffffffffffffffffffffffffffff16631916558783838151811062000df157fe5b60200260200101516040518263ffffffff167c0100000000000000000000000000000000000000000000000000000000028152600401808273ffffffffffffffffffffffffffffffffffffffff1673ffffffffffffffffffffffffffffffffffffffff168152602001915050600060405180830381600087803b15801562000e7857600080fd5b505af115801562000e8d573d6000803e3d6000fd5b5050505060018101905062000dbe565b50505062000f25565b8073ffffffffffffffffffffffffffffffffffffffff16631eb5ea2e6040518163ffffffff167c0100000000000000000000000000000000000000000000000000000000028152600401600060405180830381600087803b15801562000f0b57600080fd5b505af115801562000f20573d6000803e3d6000fd5b505050505b50505050565b6111f9806200107183390190565b6109b4806200226a83390190565b604051806080016040528060008152602001600073ffffffffffffffffffffffffffffffffffffffff168152602001600073ffffffffffffffffffffffffffffffffffffffff168152602001606081525090565b82805482825590600052602060002090810192821562001017579160200282015b82811115620010165782518260006101000a81548173ffffffffffffffffffffffffffffffffffffffff021916908373ffffffffffffffffffffffffffffffffffffffff1602179055509160200191906001019062000fbc565b5b5090506200102691906200102a565b5090565b6200106d91905b808211156200106957600081816101000a81549073ffffffffffffffffffffffffffffffffffffffff02191690555060010162001031565b5090565b9056fe6080604052604051620011f9380380620011f9833981810160405260608110156200002957600080fd5b81019080805160405193929190846401000000008211156200004a57600080fd5b838201915060208201858111156200006157600080fd5b82518660208202830111640100000000821117156200007f57600080fd5b8083526020830192505050908051906020019060200280838360005b83811015620000b85780820151818401526020810190506200009b565b5050505090500160405260200180516040519392919084640100000000821115620000e257600080fd5b83820191506020820185811115620000f957600080fd5b82518660208202830111640100000000821117156200011757600080fd5b8083526020830192505050908051906020019060200280838360005b838110156200015057808201518184015260208101905062000133565b50505050905001604052602001805190602001909291905050508151835114620001c6576040517f08c379a00000000000000000000000000000000000000000000000000000000081526004018080602001828103825260328152602001806200119c6032913960400191505060405180910390fd5b60008351116200023e576040517f08c379a000000000000000000000000000000000000000000000000000000000815260040180806020018281038252601a8152602001807f5061796d656e7453706c69747465723a206e6f2070617965657300000000000081525060200191505060405180910390fd5b806000806101000a81548173ffffffffffffffffffffffffffffffffffffffff021916908373ffffffffffffffffffffffffffffffffffffffff16021790555033600160006101000a81548173ffffffffffffffffffffffffffffffffffffffff021916908373ffffffffffffffffffffffffffffffffffffffff16021790555060008090505b8351811015620003205762000312848281518110620002e057fe5b6020026020010151848381518110620002f557fe5b60200260200101516200032a640100000000026401000000009004565b8080600101915050620002c5565b5050505062000690565b600073ffffffffffffffffffffffffffffffffffffffff168273ffffffffffffffffffffffffffffffffffffffff161415620003b2576040517f08c379a000000000000000000000000000000000000000000000000000000000815260040180806020018281038252602c81526020018062001170602c913960400191505060405180910390fd5b6000811162000429576040517f08c379a000000000000000000000000000000000000000000000000000000000815260040180806020018281038252601d8152602001807f5061796d656e7453706c69747465723a2073686172657320617265203000000081525060200191505060405180910390fd5b6000600460008473ffffffffffffffffffffffffffffffffffffffff1673ffffffffffffffffffffffffffffffffffffffff1681526020019081526020016000205414620004c3576040517f08c379a000000000000000000000000000000000000000000000000000000000815260040180806020018281038252602b815260200180620011ce602b913960400191505060405180910390fd5b60068290806001815401808255809150509060018203906000526020600020016000909192909190916101000a81548173ffffffffffffffffffffffffffffffffffffffff021916908373ffffffffffffffffffffffffffffffffffffffff1602179055505080600460008473ffffffffffffffffffffffffffffffffffffffff1673ffffffffffffffffffffffffffffffffffffffff168152602001908152602001600020819055506200059281600254620006076401000000000262000803179091906401000000009004565b6002819055507f40c340f65e17194d14ddddb073d3c9f888e3cb52b5aae0c6c7706b4fbc905fac8282604051808373ffffffffffffffffffffffffffffffffffffffff1673ffffffffffffffffffffffffffffffffffffffff1681526020018281526020019250505060405180910390a15050565b60008082840190508381101562000686576040517f08c379a000000000000000000000000000000000000000000000000000000000815260040180806020018281038252601b8152602001807f536166654d6174683a206164646974696f6e206f766572666c6f77000000000081525060200191505060405180910390fd5b8091505092915050565b610ad080620006a06000396000f3fe608060405260043610610098576000357c0100000000000000000000000000000000000000000000000000000000900480638b83209b1161006b5780638b83209b146101bd5780639852595c14610238578063ce7c2ac21461029d578063e33b7de31461030257610098565b806312065fe01461010c57806319165587146101375780631eb5ea2e146101885780633a98ef3914610192575b7f6ef95f06320e7a25a04a175ca677b7052bdd97131872c2192525a629f51be7706100c161032d565b34604051808373ffffffffffffffffffffffffffffffffffffffff1673ffffffffffffffffffffffffffffffffffffffff1681526020018281526020019250505060405180910390a1005b34801561011857600080fd5b50610121610335565b6040518082815260200191505060405180910390f35b34801561014357600080fd5b506101866004803603602081101561015a57600080fd5b81019080803573ffffffffffffffffffffffffffffffffffffffff169060200190929190505050610354565b005b610190610698565b005b34801561019e57600080fd5b506101a761071c565b6040518082815260200191505060405180910390f35b3480156101c957600080fd5b506101f6600480360360208110156101e057600080fd5b8101908080359060200190929190505050610726565b604051808273ffffffffffffffffffffffffffffffffffffffff1673ffffffffffffffffffffffffffffffffffffffff16815260200191505060405180910390f35b34801561024457600080fd5b506102876004803603602081101561025b57600080fd5b81019080803573ffffffffffffffffffffffffffffffffffffffff169060200190929190505050610767565b6040518082815260200191505060405180910390f35b3480156102a957600080fd5b506102ec600480360360208110156102c057600080fd5b81019080803573ffffffffffffffffffffffffffffffffffffffff1690602001909291905050506107b0565b6040518082815260200191505060405180910390f35b34801561030e57600080fd5b506103176107f9565b6040518082815260200191505060405180910390f35b600033905090565b60003073ffffffffffffffffffffffffffffffffffffffff1631905090565b6000600460008373ffffffffffffffffffffffffffffffffffffffff1673ffffffffffffffffffffffffffffffffffffffff16815260200190815260200160002054116103ec576040517f08c379a0000000000000000000000000000000000000000000000000000000008152600401808060200182810382526026815260200180610a2a6026913960400191505060405180910390fd5b600061041a6003543073ffffffffffffffffffffffffffffffffffffffff163161080390919063ffffffff16565b905060006104d5600560008573ffffffffffffffffffffffffffffffffffffffff1673ffffffffffffffffffffffffffffffffffffffff168152602001908152602001600020546104c76002546104b9600460008973ffffffffffffffffffffffffffffffffffffffff1673ffffffffffffffffffffffffffffffffffffffff168152602001908152602001600020548761088b90919063ffffffff16565b61091190919063ffffffff16565b6109a090919063ffffffff16565b90506000811415610531576040517f08c379a000000000000000000000000000000000000000000000000000000000815260040180806020018281038252602b815260200180610a50602b913960400191505060405180910390fd5b61058381600560008673ffffffffffffffffffffffffffffffffffffffff1673ffffffffffffffffffffffffffffffffffffffff1681526020019081526020016000205461080390919063ffffffff16565b600560008573ffffffffffffffffffffffffffffffffffffffff1673ffffffffffffffffffffffffffffffffffffffff168152602001908152602001600020819055506105db8160035461080390919063ffffffff16565b6003819055508273ffffffffffffffffffffffffffffffffffffffff166108fc829081150290604051600060405180830381858888f19350505050158015610627573d6000803e3d6000fd5b507fdf20fd1e76bc69d672e4814fafb2c449bba3a5369d8359adf9e05e6fde87b0568382604051808373ffffffffffffffffffffffffffffffffffffffff1673ffffffffffffffffffffffffffffffffffffffff1681526020018281526020019250505060405180910390a1505050565b6000809054906101000a900473ffffffffffffffffffffffffffffffffffffffff1673ffffffffffffffffffffffffffffffffffffffff166108fc60013073ffffffffffffffffffffffffffffffffffffffff1631039081150290604051600060405180830381858888f19350505050158015610719573d6000803e3d6000fd5b50565b6000600254905090565b60006006828154811061073557fe5b9060005260206000200160009054906101000a900473ffffffffffffffffffffffffffffffffffffffff169050919050565b6000600560008373ffffffffffffffffffffffffffffffffffffffff1673ffffffffffffffffffffffffffffffffffffffff168152602001908152602001600020549050919050565b6000600460008373ffffffffffffffffffffffffffffffffffffffff1673ffffffffffffffffffffffffffffffffffffffff168152602001908152602001600020549050919050565b6000600354905090565b600080828401905083811015610881576040517f08c379a000000000000000000000000000000000000000000000000000000000815260040180806020018281038252601b8152602001807f536166654d6174683a206164646974696f6e206f766572666c6f77000000000081525060200191505060405180910390fd5b8091505092915050565b60008083141561089e576000905061090b565b60008284029050828482816108af57fe5b0414610906576040517f08c379a0000000000000000000000000000000000000000000000000000000008152600401808060200182810382526021815260200180610a7b6021913960400191505060405180910390fd5b809150505b92915050565b6000808211610988576040517f08c379a000000000000000000000000000000000000000000000000000000000815260040180806020018281038252601a8152602001807f536166654d6174683a206469766973696f6e206279207a65726f00000000000081525060200191505060405180910390fd5b600082848161099357fe5b0490508091505092915050565b600082821115610a18576040517f08c379a000000000000000000000000000000000000000000000000000000000815260040180806020018281038252601e8152602001807f536166654d6174683a207375627472616374696f6e206f766572666c6f77000081525060200191505060405180910390fd5b60008284039050809150509291505056fe5061796d656e7453706c69747465723a206163636f756e7420686173206e6f207368617265735061796d656e7453706c69747465723a206163636f756e74206973206e6f7420647565207061796d656e74536166654d6174683a206d756c7469706c69636174696f6e206f766572666c6f77a265627a7a7231582024d728cc2039dd3983fc30bb9a5ffae6bebfdc330d040ba8e0e9aed6e59f411d64736f6c634300050b00325061796d656e7453706c69747465723a206163636f756e7420697320746865207a65726f20616464726573735061796d656e7453706c69747465723a2070617965657320616e6420736861726573206c656e677468206d69736d617463685061796d656e7453706c69747465723a206163636f756e7420616c726561647920686173207368617265736080604052336000806101000a81548173ffffffffffffffffffffffffffffffffffffffff021916908373ffffffffffffffffffffffffffffffffffffffff1602179055507f4101e71e974f68df5e9730cc223280b41654676bbb052cdcc735c3337e64d2d96000809054906101000a900473ffffffffffffffffffffffffffffffffffffffff16604051808273ffffffffffffffffffffffffffffffffffffffff1673ffffffffffffffffffffffffffffffffffffffff16815260200191505060405180910390a16108dd806100d76000396000f3fe608060405260043610610067576000357c0100000000000000000000000000000000000000000000000000000000900480632348238c1461006c57806351cff8d9146100bd578063c6dbdf611461010e578063e3a9db1a14610165578063f340fa01146101ca575b600080fd5b34801561007857600080fd5b506100bb6004803603602081101561008f57600080fd5b81019080803573ffffffffffffffffffffffffffffffffffffffff16906020019092919050505061020e565b005b3480156100c957600080fd5b5061010c600480360360208110156100e057600080fd5b81019080803573ffffffffffffffffffffffffffffffffffffffff169060200190929190505050610400565b005b34801561011a57600080fd5b506101236105c7565b604051808273ffffffffffffffffffffffffffffffffffffffff1673ffffffffffffffffffffffffffffffffffffffff16815260200191505060405180910390f35b34801561017157600080fd5b506101b46004803603602081101561018857600080fd5b81019080803573ffffffffffffffffffffffffffffffffffffffff1690602001909291905050506105f0565b6040518082815260200191505060405180910390f35b61020c600480360360208110156101e057600080fd5b81019080803573ffffffffffffffffffffffffffffffffffffffff169060200190929190505050610639565b005b6000809054906101000a900473ffffffffffffffffffffffffffffffffffffffff1673ffffffffffffffffffffffffffffffffffffffff163373ffffffffffffffffffffffffffffffffffffffff16146102b3576040517f08c379a000000000000000000000000000000000000000000000000000000000815260040180806020018281038252602c81526020018061087d602c913960400191505060405180910390fd5b600073ffffffffffffffffffffffffffffffffffffffff168173ffffffffffffffffffffffffffffffffffffffff161415610339576040517f08c379a000000000000000000000000000000000000000000000000000000000815260040180806020018281038252602a815260200180610853602a913960400191505060405180910390fd5b806000806101000a81548173ffffffffffffffffffffffffffffffffffffffff021916908373ffffffffffffffffffffffffffffffffffffffff1602179055507f4101e71e974f68df5e9730cc223280b41654676bbb052cdcc735c3337e64d2d96000809054906101000a900473ffffffffffffffffffffffffffffffffffffffff16604051808273ffffffffffffffffffffffffffffffffffffffff1673ffffffffffffffffffffffffffffffffffffffff16815260200191505060405180910390a150565b6000809054906101000a900473ffffffffffffffffffffffffffffffffffffffff1673ffffffffffffffffffffffffffffffffffffffff163373ffffffffffffffffffffffffffffffffffffffff16146104a5576040517f08c379a000000000000000000000000000000000000000000000000000000000815260040180806020018281038252602c81526020018061087d602c913960400191505060405180910390fd5b6000600160008373ffffffffffffffffffffffffffffffffffffffff1673ffffffffffffffffffffffffffffffffffffffff1681526020019081526020016000205490506000600160008473ffffffffffffffffffffffffffffffffffffffff1673ffffffffffffffffffffffffffffffffffffffff168152602001908152602001600020819055508173ffffffffffffffffffffffffffffffffffffffff166108fc829081150290604051600060405180830381858888f19350505050158015610574573d6000803e3d6000fd5b508173ffffffffffffffffffffffffffffffffffffffff167f7084f5476618d8e60b11ef0d7d3f06914655adb8793e28ff7f018d4c76d505d5826040518082815260200191505060405180910390a25050565b60008060009054906101000a900473ffffffffffffffffffffffffffffffffffffffff16905090565b6000600160008373ffffffffffffffffffffffffffffffffffffffff1673ffffffffffffffffffffffffffffffffffffffff168152602001908152602001600020549050919050565b6000809054906101000a900473ffffffffffffffffffffffffffffffffffffffff1673ffffffffffffffffffffffffffffffffffffffff163373ffffffffffffffffffffffffffffffffffffffff16146106de576040517f08c379a000000000000000000000000000000000000000000000000000000000815260040180806020018281038252602c81526020018061087d602c913960400191505060405180910390fd5b600034905061073581600160008573ffffffffffffffffffffffffffffffffffffffff1673ffffffffffffffffffffffffffffffffffffffff168152602001908152602001600020546107ca90919063ffffffff16565b600160008473ffffffffffffffffffffffffffffffffffffffff1673ffffffffffffffffffffffffffffffffffffffff168152602001908152602001600020819055508173ffffffffffffffffffffffffffffffffffffffff167f2da466a7b24304f47e87fa2e1e5a81b9831ce54fec19055ce277ca2f39ba42c4826040518082815260200191505060405180910390a25050565b600080828401905083811015610848576040517f08c379a000000000000000000000000000000000000000000000000000000000815260040180806020018281038252601b8152602001807f536166654d6174683a206164646974696f6e206f766572666c6f77000000000081525060200191505060405180910390fd5b809150509291505056fe5365636f6e646172793a206e6577207072696d61727920697320746865207a65726f20616464726573735365636f6e646172793a2063616c6c6572206973206e6f7420746865207072696d617279206163636f756e74a265627a7a72315820c49096e8cc6871e65ccf91cfc19cf9a366e51c3aedba9cd88079b317a5631d8964736f6c634300050b00324d757374206861766520612062696420707269636520696e206f7264657220746f20626964206f6e20616e206164766572746973656d656e74a265627a7a723158206e36c4b5e53d7b009ccdb1a3e2f88c277513b0062249c6e565c6f250b85fda9764736f6c634300050b0032",
  "source": "pragma solidity ^0.5.11;\n\nimport \"openzeppelin-solidity/contracts/payment/escrow/Escrow.sol\";\nimport \"./PaymentSplitter.sol\";\nimport \"openzeppelin-solidity/contracts/math/SafeMath.sol\";\nimport \"./DomainDAO.sol\";\n\n/**\n * @title AdvertisingDAO - Example of how a DApp/DAO can be integrated into a given domain once approved by the domain DAO\n *\n */\n\ncontract AdvertisingDAO {\n  using SafeMath for uint;\n  address domainDAOAddress;\n  mapping(uint => Bid) bids;\n  \n  constructor(address _domainDAOAddress) public {\n    domainDAOAddress = _domainDAOAddress;\n  }\n  \n  struct Bid {\n    uint bidID;   // MAKE bytes32, will be used for graphQL query on domain space for bid info\n    address payable paymentSplitter;\n    Escrow escrow;\n    address payable[] investorArray;\n  }\n  \n  /**\n   * @dev Returns the amount of shares an investor owns, as well as the total shares in the domain. Used as numerator and denominator\n   * Uses info from DomainDAO\n   * @param bidID unique identifier for a bid, used to query info in 3box\n   * @param info JSON information about a bid\n   */\n  function createBid(uint bidID, bytes32 info) public payable { // Modifiers are handled by domainDAO\n    require(msg.value > 0, 'Must have a bid price in order to bid on an advertisement');\n    DomainDAO domainDAO = DomainDAO(domainDAOAddress);\n    domainDAO.createBid(bidID, info);\n    address payable[] memory investorArray = domainDAO.getInvestorArraySnapshot(bidID);\n    uint[] memory investorSharesArray = domainDAO.getInvestorSharesArraySnapshot(bidID);\n    PaymentSplitter paymentSplitter = new PaymentSplitter(investorArray, investorSharesArray, msg.sender);\n    Escrow escrow = new Escrow();\n    escrow.deposit.value(msg.value)(address(paymentSplitter));\n    Bid memory bid = Bid(bidID, address(paymentSplitter), escrow, investorArray);\n    bids[bidID] = bid;\n  }\n  \n  /**\n   * @dev Approves a bid, deletes all data relevant to that bid, and adds bid to approvedBids\n   * @param bidID unique identifier for a bid, used to query info in 3box\n   * @param approved bool value indicating whether the user approved the bid\n   */\n  function vote(uint bidID, bool approved) public returns (string memory) { // Modifiers are handled by domainDAO\n    DomainDAO domainDAO = DomainDAO(domainDAOAddress);\n    uint response = domainDAO.vote(bidID, approved, true);\n    if(response == 1) { // approved\n      closeBid(bidID, true);\n      return(\"approved\");\n    } else if(response == 2) {\n      closeBid(bidID, false);\n      return(\"rejected\");\n    } else {\n      return(\"neutral\");\n    }\n  }\n  \n  /**\n   * @dev Approves or rejects a bid, deletes all data relevant to that bid, and adds bid to approvedBids if approved\n   * @param bidID unique identifier for a bid, used to query info in 3box\n   */\n  function closeBid(uint bidID, bool approved) private {\n    Escrow escrow = bids[bidID].escrow;\n    escrow.withdraw(bids[bidID].paymentSplitter); // Send ETH to Payment Splitter when bid is closed\n    PaymentSplitter paymentSplitter = PaymentSplitter(bids[bidID].paymentSplitter);\n    if(approved) {\n      DomainDAO domainDAO = DomainDAO(domainDAOAddress);\n      address payable[] memory investorArray = bids[bidID].investorArray;\n      for(uint i = 0; i < investorArray.length; i += 1) {\n        paymentSplitter.release(investorArray[i]);\n      }\n    } else {\n      paymentSplitter.returnFunds();\n    }\n  }\n  \n  function getPaymentSplitter(uint bidID) public view returns(address) {\n    return(address(bids[bidID].paymentSplitter));\n  }\n  \n  function getEscrow(uint bidID) public view returns(address) {\n    return(address(bids[bidID].escrow));\n  }\n}",
  "sourcePath": "/Users/christopherfenos/Documents/code/bob/bob/packages/desktop/contracts/AdvertisingDAO.sol",
  "compiler": {
    "name": "solc",
    "version": "0.5.11+commit.c082d0b4.Emscripten.clang"
  },
  "schemaVersion": "3.0.13",
  "updatedAt": "2019-08-24T15:36:30.586Z",
  "devdoc": {
    "methods": {
      "createBid(uint256,bytes32)": {
        "details": "Returns the amount of shares an investor owns, as well as the total shares in the domain. Used as numerator and denominator Uses info from DomainDAO",
        "params": {
          "bidID": "unique identifier for a bid, used to query info in 3box",
          "info": "JSON information about a bid"
        }
      },
      "vote(uint256,bool)": {
        "details": "Approves a bid, deletes all data relevant to that bid, and adds bid to approvedBids",
        "params": {
          "approved": "bool value indicating whether the user approved the bid",
          "bidID": "unique identifier for a bid, used to query info in 3box"
        }
      }
    },
    "title": "AdvertisingDAO - Example of how a DApp/DAO can be integrated into a given domain once approved by the domain DAO "
  },
  "userdoc": {
    "methods": {}
  }
}