{
  "contractName": "DomainDAO",
  "abi": [
    {
      "constant": true,
      "inputs": [
        {
          "internalType": "uint256",
          "name": "",
          "type": "uint256"
        }
      ],
      "name": "investorSharesArray",
      "outputs": [
        {
          "internalType": "uint256",
          "name": "",
          "type": "uint256"
        }
      ],
      "payable": false,
      "stateMutability": "view",
      "type": "function"
    },
    {
      "constant": true,
      "inputs": [],
      "name": "totalShares",
      "outputs": [
        {
          "internalType": "uint256",
          "name": "",
          "type": "uint256"
        }
      ],
      "payable": false,
      "stateMutability": "view",
      "type": "function"
    },
    {
      "constant": true,
      "inputs": [
        {
          "internalType": "uint256",
          "name": "",
          "type": "uint256"
        }
      ],
      "name": "approvedBids",
      "outputs": [
        {
          "internalType": "uint256",
          "name": "",
          "type": "uint256"
        }
      ],
      "payable": false,
      "stateMutability": "view",
      "type": "function"
    },
    {
      "constant": true,
      "inputs": [
        {
          "internalType": "address",
          "name": "",
          "type": "address"
        }
      ],
      "name": "investors",
      "outputs": [
        {
          "internalType": "bool",
          "name": "",
          "type": "bool"
        }
      ],
      "payable": false,
      "stateMutability": "view",
      "type": "function"
    },
    {
      "constant": true,
      "inputs": [
        {
          "internalType": "uint256",
          "name": "",
          "type": "uint256"
        }
      ],
      "name": "investorArray",
      "outputs": [
        {
          "internalType": "address",
          "name": "",
          "type": "address"
        }
      ],
      "payable": false,
      "stateMutability": "view",
      "type": "function"
    },
    {
      "constant": true,
      "inputs": [
        {
          "internalType": "address",
          "name": "",
          "type": "address"
        }
      ],
      "name": "investorShares",
      "outputs": [
        {
          "internalType": "uint256",
          "name": "",
          "type": "uint256"
        }
      ],
      "payable": false,
      "stateMutability": "view",
      "type": "function"
    },
    {
      "inputs": [],
      "payable": true,
      "stateMutability": "payable",
      "type": "constructor"
    },
    {
      "anonymous": false,
      "inputs": [
        {
          "indexed": false,
          "internalType": "address",
          "name": "domainAddress",
          "type": "address"
        },
        {
          "indexed": false,
          "internalType": "uint256",
          "name": "bidID",
          "type": "uint256"
        },
        {
          "indexed": false,
          "internalType": "string",
          "name": "smartContractFile",
          "type": "string"
        },
        {
          "indexed": false,
          "internalType": "uint256",
          "name": "timestamp",
          "type": "uint256"
        }
      ],
      "name": "BidApproved",
      "type": "event"
    },
    {
      "anonymous": false,
      "inputs": [
        {
          "indexed": false,
          "internalType": "address",
          "name": "domainAddress",
          "type": "address"
        },
        {
          "indexed": false,
          "internalType": "uint256",
          "name": "bidID",
          "type": "uint256"
        },
        {
          "indexed": false,
          "internalType": "string",
          "name": "smartContractFile",
          "type": "string"
        },
        {
          "indexed": false,
          "internalType": "uint256",
          "name": "timestamp",
          "type": "uint256"
        }
      ],
      "name": "BidRejected",
      "type": "event"
    },
    {
      "constant": true,
      "inputs": [
        {
          "internalType": "uint256",
          "name": "bidID",
          "type": "uint256"
        }
      ],
      "name": "getBid",
      "outputs": [
        {
          "internalType": "uint256",
          "name": "",
          "type": "uint256"
        },
        {
          "internalType": "string",
          "name": "",
          "type": "string"
        },
        {
          "internalType": "uint256",
          "name": "",
          "type": "uint256"
        },
        {
          "internalType": "uint256",
          "name": "",
          "type": "uint256"
        },
        {
          "internalType": "uint256",
          "name": "",
          "type": "uint256"
        },
        {
          "internalType": "bool",
          "name": "",
          "type": "bool"
        }
      ],
      "payable": false,
      "stateMutability": "view",
      "type": "function"
    },
    {
      "constant": false,
      "inputs": [],
      "name": "invest",
      "outputs": [],
      "payable": true,
      "stateMutability": "payable",
      "type": "function"
    },
    {
      "constant": true,
      "inputs": [
        {
          "internalType": "address",
          "name": "investor",
          "type": "address"
        }
      ],
      "name": "getInvestorEquity",
      "outputs": [
        {
          "internalType": "uint256",
          "name": "",
          "type": "uint256"
        },
        {
          "internalType": "uint256",
          "name": "",
          "type": "uint256"
        }
      ],
      "payable": false,
      "stateMutability": "view",
      "type": "function"
    },
    {
      "constant": false,
      "inputs": [
        {
          "internalType": "uint256",
          "name": "bidID",
          "type": "uint256"
        },
        {
          "internalType": "string",
          "name": "smartContractFile",
          "type": "string"
        }
      ],
      "name": "createBid",
      "outputs": [],
      "payable": true,
      "stateMutability": "payable",
      "type": "function"
    },
    {
      "constant": false,
      "inputs": [
        {
          "internalType": "uint256",
          "name": "bidID",
          "type": "uint256"
        },
        {
          "internalType": "bool",
          "name": "approved",
          "type": "bool"
        }
      ],
      "name": "vote",
      "outputs": [
        {
          "internalType": "bool",
          "name": "",
          "type": "bool"
        }
      ],
      "payable": false,
      "stateMutability": "nonpayable",
      "type": "function"
    },
    {
      "constant": true,
      "inputs": [
        {
          "internalType": "uint256",
          "name": "bidID",
          "type": "uint256"
        }
      ],
      "name": "getInvestorArraySnapshot",
      "outputs": [
        {
          "internalType": "address[]",
          "name": "",
          "type": "address[]"
        }
      ],
      "payable": false,
      "stateMutability": "view",
      "type": "function"
    },
    {
      "constant": true,
      "inputs": [
        {
          "internalType": "uint256",
          "name": "bidID",
          "type": "uint256"
        },
        {
          "internalType": "address",
          "name": "investor",
          "type": "address"
        }
      ],
      "name": "getInvestorsSnapshot",
      "outputs": [
        {
          "internalType": "bool",
          "name": "",
          "type": "bool"
        }
      ],
      "payable": false,
      "stateMutability": "view",
      "type": "function"
    },
    {
      "constant": true,
      "inputs": [
        {
          "internalType": "uint256",
          "name": "bidID",
          "type": "uint256"
        },
        {
          "internalType": "address",
          "name": "investor",
          "type": "address"
        }
      ],
      "name": "getInvestorSharesSnapshot",
      "outputs": [
        {
          "internalType": "uint256",
          "name": "",
          "type": "uint256"
        }
      ],
      "payable": false,
      "stateMutability": "view",
      "type": "function"
    }
  ],
  "bytecode": "0x6080604052600034116200005f576040517f08c379a000000000000000000000000000000000000000000000000000000000815260040180806020018281038252602b81526020018062002423602b913960400191505060405180910390fd5b60006005819055506200008062000086640100000000026401000000009004565b62000346565b60003411620000e1576040517f08c379a00000000000000000000000000000000000000000000000000000000081526004018080602001828103825260308152602001806200244e6030913960400191505060405180910390fd5b6000803373ffffffffffffffffffffffffffffffffffffffff1673ffffffffffffffffffffffffffffffffffffffff16815260200190815260200160002060009054906101000a900460ff166200026d5760016000803373ffffffffffffffffffffffffffffffffffffffff1673ffffffffffffffffffffffffffffffffffffffff16815260200190815260200160002060006101000a81548160ff02191690831515021790555060023390806001815401808255809150509060018203906000526020600020016000909192909190916101000a81548173ffffffffffffffffffffffffffffffffffffffff021916908373ffffffffffffffffffffffffffffffffffffffff160217905550506004349080600181540180825580915050906001820390600052602060002001600090919290919091505550600160028054905003600160003373ffffffffffffffffffffffffffffffffffffffff1673ffffffffffffffffffffffffffffffffffffffff16815260200190815260200160002081905550620002d3565b346004600160003373ffffffffffffffffffffffffffffffffffffffff1673ffffffffffffffffffffffffffffffffffffffff1681526020019081526020016000205481548110620002bb57fe5b90600052602060002001600082825401925050819055505b34600360003373ffffffffffffffffffffffffffffffffffffffff1673ffffffffffffffffffffffffffffffffffffffff1681526020019081526020016000206000828254019250508190555034600560008282540192505081905550600480549050600280549050146200034457fe5b565b6120cd80620003566000396000f3fe6080604052600436106100fa576000357c010000000000000000000000000000000000000000000000000000000090048063701375931161009c578063c9d27afe11610076578063c9d27afe146105bb578063d3690b6a1461061a578063d6b296b01461067f578063e8b5e51f146106ee576100fa565b8063701375931461040f5780638280f772146104d4578063a80494eb14610540576100fa565b80633a98ef39116100d85780633a98ef39146102515780633c889e6f1461027c5780636a2d0819146103575780636f7bc9be146103a6576100fa565b80632a38d0af146100ff5780632b9cff081461018f5780632f441732146101de575b600080fd5b34801561010b57600080fd5b506101386004803603602081101561012257600080fd5b81019080803590602001909291905050506106f8565b6040518080602001828103825283818151815260200191508051906020019060200280838360005b8381101561017b578082015181840152602081019050610160565b505050509050019250505060405180910390f35b34801561019b57600080fd5b506101c8600480360360208110156101b257600080fd5b8101908080359060200190929190505050610799565b6040518082815260200191505060405180910390f35b3480156101ea57600080fd5b506102376004803603604081101561020157600080fd5b8101908080359060200190929190803573ffffffffffffffffffffffffffffffffffffffff1690602001909291905050506107ba565b604051808215151515815260200191505060405180910390f35b34801561025d57600080fd5b50610266610822565b6040518082815260200191505060405180910390f35b34801561028857600080fd5b506102b56004803603602081101561029f57600080fd5b8101908080359060200190929190505050610828565b604051808781526020018060200186815260200185815260200184815260200183151515158152602001828103825287818151815260200191508051906020019080838360005b838110156103175780820151818401526020810190506102fc565b50505050905090810190601f1680156103445780820380516001836020036101000a031916815260200191505b5097505050505050505060405180910390f35b34801561036357600080fd5b506103906004803603602081101561037a57600080fd5b8101908080359060200190929190505050610976565b6040518082815260200191505060405180910390f35b3480156103b257600080fd5b506103f5600480360360208110156103c957600080fd5b81019080803573ffffffffffffffffffffffffffffffffffffffff169060200190929190505050610997565b604051808215151515815260200191505060405180910390f35b6104d26004803603604081101561042557600080fd5b81019080803590602001909291908035906020019064010000000081111561044c57600080fd5b82018360208201111561045e57600080fd5b8035906020019184600183028401116401000000008311171561048057600080fd5b91908080601f016020809104026020016040519081016040528093929190818152602001838380828437600081840152601f19601f8201169050808301925050505050505091929192905050506109b7565b005b3480156104e057600080fd5b50610523600480360360208110156104f757600080fd5b81019080803573ffffffffffffffffffffffffffffffffffffffff169060200190929190505050610ebc565b604051808381526020018281526020019250505060405180910390f35b34801561054c57600080fd5b506105796004803603602081101561056357600080fd5b8101908080359060200190929190505050610f11565b604051808273ffffffffffffffffffffffffffffffffffffffff1673ffffffffffffffffffffffffffffffffffffffff16815260200191505060405180910390f35b3480156105c757600080fd5b50610600600480360360408110156105de57600080fd5b8101908080359060200190929190803515159060200190929190505050610f4d565b604051808215151515815260200191505060405180910390f35b34801561062657600080fd5b506106696004803603602081101561063d57600080fd5b81019080803573ffffffffffffffffffffffffffffffffffffffff16906020019092919050505061145a565b6040518082815260200191505060405180910390f35b34801561068b57600080fd5b506106d8600480360360408110156106a257600080fd5b8101908080359060200190929190803573ffffffffffffffffffffffffffffffffffffffff169060200190929190505050611472565b6040518082815260200191505060405180910390f35b6106f66114cd565b005b60606008600083815260200190815260200160002080548060200260200160405190810160405280929190818152602001828054801561078d57602002820191906000526020600020905b8160009054906101000a900473ffffffffffffffffffffffffffffffffffffffff1673ffffffffffffffffffffffffffffffffffffffff1681526020019060010190808311610743575b50505050509050919050565b600481815481106107a657fe5b906000526020600020016000915090505481565b60006006600084815260200190815260200160002060008373ffffffffffffffffffffffffffffffffffffffff1673ffffffffffffffffffffffffffffffffffffffff16815260200190815260200160002060009054906101000a900460ff16905092915050565b60055481565b6000606060008060008061083a611df3565b600a60008981526020019081526020016000206040518060c001604052908160008201548152602001600182018054600181600116156101000203166002900480601f0160208091040260200160405190810160405280929190818152602001828054600181600116156101000203166002900480156108fb5780601f106108d0576101008083540402835291602001916108fb565b820191906000526020600020905b8154815290600101906020018083116108de57829003601f168201915b505050505081526020016002820154815260200160038201548152602001600482015481526020016005820160009054906101000a900460ff1615151515815250509050806000015181602001518260400151836060015184608001518560a001518494509650965096509650965096505091939550919395565b600c818154811061098357fe5b906000526020600020016000915090505481565b60006020528060005260406000206000915054906101000a900460ff1681565b600115156000803373ffffffffffffffffffffffffffffffffffffffff1673ffffffffffffffffffffffffffffffffffffffff16815260200190815260200160002060009054906101000a900460ff16151514610a7c576040517f08c379a000000000000000000000000000000000000000000000000000000000815260040180806020018281038252601f8152602001807f55736572206d75737420626520696e76657374656420696e20646f6d61696e0081525060200191505060405180910390fd5b81610a85611df3565b600a60008381526020019081526020016000206040518060c001604052908160008201548152602001600182018054600181600116156101000203166002900480601f016020809104026020016040519081016040528092919081815260200182805460018160011615610100020316600290048015610b465780601f10610b1b57610100808354040283529160200191610b46565b820191906000526020600020905b815481529060010190602001808311610b2957829003601f168201915b505050505081526020016002820154815260200160038201548152602001600482015481526020016005820160009054906101000a900460ff16151515158152505090508060a0015115610be5576040517f08c379a00000000000000000000000000000000000000000000000000000000081526004018080602001828103825260238152602001806120766023913960400191505060405180910390fd5b600b600083815260200190815260200160002060009054906101000a900460ff1615610c5c576040517f08c379a000000000000000000000000000000000000000000000000000000000815260040180806020018281038252602b815260200180612021602b913960400191505060405180910390fd5b60008090505b600280549050811015610de157600160066000878152602001908152602001600020600060028481548110610c9357fe5b9060005260206000200160009054906101000a900473ffffffffffffffffffffffffffffffffffffffff1673ffffffffffffffffffffffffffffffffffffffff1673ffffffffffffffffffffffffffffffffffffffff16815260200190815260200160002060006101000a81548160ff02191690831515021790555060048181548110610d1c57fe5b906000526020600020015460076000878152602001908152602001600020600060028481548110610d4957fe5b9060005260206000200160009054906101000a900473ffffffffffffffffffffffffffffffffffffffff1673ffffffffffffffffffffffffffffffffffffffff1673ffffffffffffffffffffffffffffffffffffffff16815260200190815260200160002081905550600260086000878152602001908152602001600020908054610dd5929190611e2b565b50600181019050610c62565b506000610dfa600260055461178790919063ffffffff16565b9050610e04611df3565b6040518060c00160405280878152602001868152602001600081526020016000815260200183815260200160011515815250905080600a6000888152602001908152602001600020600082015181600001556020820151816001019080519060200190610e72929190611e7d565b5060408201518160020155606082015181600301556080820151816004015560a08201518160050160006101000a81548160ff021916908315150217905550905050505050505050565b6000806000600360008573ffffffffffffffffffffffffffffffffffffffff1673ffffffffffffffffffffffffffffffffffffffff168152602001908152602001600020549050806005549250925050915091565b60028181548110610f1e57fe5b906000526020600020016000915054906101000a900473ffffffffffffffffffffffffffffffffffffffff1681565b600082610f58611df3565b600a60008381526020019081526020016000206040518060c001604052908160008201548152602001600182018054600181600116156101000203166002900480601f0160208091040260200160405190810160405280929190818152602001828054600181600116156101000203166002900480156110195780601f10610fee57610100808354040283529160200191611019565b820191906000526020600020905b815481529060010190602001808311610ffc57829003601f168201915b505050505081526020016002820154815260200160038201548152602001600482015481526020016005820160009054906101000a900460ff16151515158152505090508060a001516110d4576040517f08c379a000000000000000000000000000000000000000000000000000000000815260040180806020018281038252601d8152602001807f42696420646f6573206e6f74206578697374206174207468697320494400000081525060200191505060405180910390fd5b84600115156006600083815260200190815260200160002060003373ffffffffffffffffffffffffffffffffffffffff1673ffffffffffffffffffffffffffffffffffffffff16815260200190815260200160002060009054906101000a900460ff1615151461118f576040517f08c379a000000000000000000000000000000000000000000000000000000000815260040180806020018281038252602a81526020018061204c602a913960400191505060405180910390fd5b856009600082815260200190815260200160002060003373ffffffffffffffffffffffffffffffffffffffff1673ffffffffffffffffffffffffffffffffffffffff16815260200190815260200160002060009054906101000a900460ff1615611244576040517f08c379a0000000000000000000000000000000000000000000000000000000008152600401808060200182810382526022815260200180611fcf6022913960400191505060405180910390fd5b6000600a60008981526020019081526020016000209050861561135c576007600089815260200190815260200160002060003373ffffffffffffffffffffffffffffffffffffffff1673ffffffffffffffffffffffffffffffffffffffff1681526020019081526020016000205481600201600082825401925050819055506001600960008a815260200190815260200160002060003373ffffffffffffffffffffffffffffffffffffffff1673ffffffffffffffffffffffffffffffffffffffff16815260200190815260200160002060006101000a81548160ff02191690831515021790555080600401548160020154111561135257611347886001611816565b506001955050611450565b6000955050611450565b6007600089815260200190815260200160002060003373ffffffffffffffffffffffffffffffffffffffff1673ffffffffffffffffffffffffffffffffffffffff1681526020019081526020016000205481600301600082825401925050819055506001600960008a815260200190815260200160002060003373ffffffffffffffffffffffffffffffffffffffff1673ffffffffffffffffffffffffffffffffffffffff16815260200190815260200160002060006101000a81548160ff02191690831515021790555080600401548160030154111561144a57611442886000611816565b955050611450565b60009550505b5050505092915050565b60036020528060005260406000206000915090505481565b60006007600084815260200190815260200160002060008373ffffffffffffffffffffffffffffffffffffffff1673ffffffffffffffffffffffffffffffffffffffff16815260200190815260200160002054905092915050565b60003411611526576040517f08c379a0000000000000000000000000000000000000000000000000000000008152600401808060200182810382526030815260200180611ff16030913960400191505060405180910390fd5b6000803373ffffffffffffffffffffffffffffffffffffffff1673ffffffffffffffffffffffffffffffffffffffff16815260200190815260200160002060009054906101000a900460ff166116b05760016000803373ffffffffffffffffffffffffffffffffffffffff1673ffffffffffffffffffffffffffffffffffffffff16815260200190815260200160002060006101000a81548160ff02191690831515021790555060023390806001815401808255809150509060018203906000526020600020016000909192909190916101000a81548173ffffffffffffffffffffffffffffffffffffffff021916908373ffffffffffffffffffffffffffffffffffffffff160217905550506004349080600181540180825580915050906001820390600052602060002001600090919290919091505550600160028054905003600160003373ffffffffffffffffffffffffffffffffffffffff1673ffffffffffffffffffffffffffffffffffffffff16815260200190815260200160002081905550611715565b346004600160003373ffffffffffffffffffffffffffffffffffffffff1673ffffffffffffffffffffffffffffffffffffffff16815260200190815260200160002054815481106116fd57fe5b90600052602060002001600082825401925050819055505b34600360003373ffffffffffffffffffffffffffffffffffffffff1673ffffffffffffffffffffffffffffffffffffffff16815260200190815260200160002060008282540192505081905550346005600082825401925050819055506004805490506002805490501461178557fe5b565b60008082116117fe576040517f08c379a000000000000000000000000000000000000000000000000000000000815260040180806020018281038252601a8152602001807f536166654d6174683a206469766973696f6e206279207a65726f00000000000081525060200191505060405180910390fd5b600082848161180957fe5b0490508091505092915050565b6000611820611df3565b600a60008581526020019081526020016000206040518060c001604052908160008201548152602001600182018054600181600116156101000203166002900480601f0160208091040260200160405190810160405280929190818152602001828054600181600116156101000203166002900480156118e15780601f106118b6576101008083540402835291602001916118e1565b820191906000526020600020905b8154815290600101906020018083116118c457829003601f168201915b505050505081526020016002820154815260200160038201548152602001600482015481526020016005820160009054906101000a900460ff161515151581525050905060608160200151905060008090505b6008600087815260200190815260200160002080549050811015611b495760066000878152602001908152602001600020600060086000898152602001908152602001600020838154811061198557fe5b9060005260206000200160009054906101000a900473ffffffffffffffffffffffffffffffffffffffff1673ffffffffffffffffffffffffffffffffffffffff1673ffffffffffffffffffffffffffffffffffffffff16815260200190815260200160002060006101000a81549060ff0219169055600760008781526020019081526020016000206000600860008981526020019081526020016000208381548110611a2d57fe5b9060005260206000200160009054906101000a900473ffffffffffffffffffffffffffffffffffffffff1673ffffffffffffffffffffffffffffffffffffffff1673ffffffffffffffffffffffffffffffffffffffff16815260200190815260200160002060009055600960008781526020019081526020016000206000600860008981526020019081526020016000208381548110611ac957fe5b9060005260206000200160009054906101000a900473ffffffffffffffffffffffffffffffffffffffff1673ffffffffffffffffffffffffffffffffffffffff1673ffffffffffffffffffffffffffffffffffffffff16815260200190815260200160002060006101000a81549060ff0219169055600181019050611934565b50600a6000868152602001908152602001600020600080820160009055600182016000611b769190611efd565b6002820160009055600382016000905560048201600090556005820160006101000a81549060ff02191690555050600860008681526020019081526020016000206000611bc39190611f45565b6001600b600087815260200190815260200160002060006101000a81548160ff0219169083151502179055508315611d0657600c8590806001815401808255809150509060018203906000526020600020016000909192909190915055507fdbe36dd2a84368c8e4159267fdd6aa85718b9bce32d671c2f89a53ad5a9a62d130868342604051808573ffffffffffffffffffffffffffffffffffffffff1673ffffffffffffffffffffffffffffffffffffffff16815260200184815260200180602001838152602001828103825284818151815260200191508051906020019080838360005b83811015611cc4578082015181840152602081019050611ca9565b50505050905090810190601f168015611cf15780820380516001836020036101000a031916815260200191505b509550505050505060405180910390a1611de7565b7f0deb81c825ea9a501cf2575bbbfaa87dbc776896120d6626f2e2a5e39789485c30868342604051808573ffffffffffffffffffffffffffffffffffffffff1673ffffffffffffffffffffffffffffffffffffffff16815260200184815260200180602001838152602001828103825284818151815260200191508051906020019080838360005b83811015611da9578082015181840152602081019050611d8e565b50505050905090810190601f168015611dd65780820380516001836020036101000a031916815260200191505b509550505050505060405180910390a15b60019250505092915050565b6040518060c0016040528060008152602001606081526020016000815260200160008152602001600081526020016000151581525090565b828054828255906000526020600020908101928215611e6c5760005260206000209182015b82811115611e6b578254825591600101919060010190611e50565b5b509050611e799190611f66565b5090565b828054600181600116156101000203166002900490600052602060002090601f016020900481019282601f10611ebe57805160ff1916838001178555611eec565b82800160010185558215611eec579182015b82811115611eeb578251825591602001919060010190611ed0565b5b509050611ef99190611fa9565b5090565b50805460018160011615610100020316600290046000825580601f10611f235750611f42565b601f016020900490600052602060002090810190611f419190611fa9565b5b50565b5080546000825590600052602060002090810190611f639190611fa9565b50565b611fa691905b80821115611fa257600081816101000a81549073ffffffffffffffffffffffffffffffffffffffff021916905550600101611f6c565b5090565b90565b611fcb91905b80821115611fc7576000816000905550600101611faf565b5090565b9056fe557365722068617320616c726561647920766f746564206f6e2074686973206269644d75737420696e7665737420736f6d6520455448206265636f6d65206120646f6d61696e44414f20696e766573746f72426964207769746820746869732049442065786973747320616e6420686173206265656e20636c6f73656455736572206d75737420626520696e766573746564207768656e20626964207761732063726561746564426964207769746820746869732049442065786973747320616e64206973206f70656ea265627a7a723158207b55c8b9d03cef4bbe544d919d9cc2b6d65f64e0533249166d013c33a14b621564736f6c634300050b00324d75737420696e7665737420736f6d652045544820746f206465706c6f79206120646f6d61696e2044414f4d75737420696e7665737420736f6d6520455448206265636f6d65206120646f6d61696e44414f20696e766573746f72",
  "source": "pragma solidity ^0.5.11;\n\nimport \"openzeppelin-solidity/contracts/math/SafeMath.sol\";\n\n/**\n * @title DomainDAO - Equity based voting system managed by domain investors\n *\n */\n\ncontract DomainDAO {\n  using SafeMath for uint;\n  mapping(address => bool) public investors;\n  mapping(address => uint) internal investorIndex;\n  address[] public investorArray;\n  mapping(address => uint) public investorShares; // Equity is counted as shares, (1 wei = 1 share, taken from msg.value in invest())\n  uint[] public investorSharesArray;\n  uint public totalShares;\n  \n  mapping(uint => mapping(address => bool)) investorsSnapshot;      // Investors in domainDAO when bid is initiated, by bidID\n  mapping(uint => mapping(address => uint)) investorSharesSnapshot; // Shares that each investor has when bid is initiated, by bidID\n  mapping(uint => address[]) investorArraySnapshot;                 // Array of investor addresses when bid is initiated, by bidID\n  mapping(uint => mapping(address => bool)) bidVoters;              // Investors that have voted for a bid\n  \n  mapping(uint => Bid) openBids;\n  mapping(uint => bool) closedBids;\n  uint[] public approvedBids;\n  \n  event BidApproved(address domainAddress, uint bidID, string smartContractFile, uint timestamp);\n  event BidRejected(address domainAddress, uint bidID, string smartContractFile, uint timestamp);\n\n  constructor() public payable {\n    require(msg.value > 0, 'Must invest some ETH to deploy a domain DAO');\n    totalShares = 0;\n    invest();\n  }\n  \n  modifier isInvestor() {\n    require(investors[msg.sender] == true, 'User must be invested in domain');\n    _;\n  }\n  \n  modifier isInvestorInBid(uint bidID) {\n    require(investorsSnapshot[bidID][msg.sender] == true, 'User must be invested when bid was created');\n    _;\n  }\n\n  modifier bidExists(uint bidID) {\n    Bid memory bid = openBids[bidID];\n    require(bid.exists, 'Bid does not exist at this ID');\n    _;\n  }\n  \n  modifier bidIsUnique(uint bidID) {\n    Bid memory bid = openBids[bidID];\n    require(!bid.exists, 'Bid with this ID exists and is open');\n    require(!closedBids[bidID], 'Bid with this ID exists and has been closed');\n    _;\n  }\n  \n  modifier hasNotVoted(uint bidID) {\n    require(!bidVoters[bidID][msg.sender], 'User has already voted on this bid');\n    _;\n  }\n  \n  struct Bid {\n    uint bidID;               // MAKE bytes32, will be used for graphQL query on domain space for bid info\n    string smartContractFile; // Temporarily using filename for the scope of this PoC, will make more robust later\n    uint votesFor;\n    uint votesAgainst;\n    uint halfOfShares;\n    bool exists;\n  }\n  \n  function getBid(uint bidID) public view returns (uint, string memory, uint, uint, uint, bool) {\n    Bid memory bid = openBids[bidID];\n    return(bid.bidID, bid.smartContractFile, bid.votesFor, bid.votesAgainst, bid.halfOfShares, bid.exists);\n  }\n\n  /**\n   * @dev Uses msg.value to add amount of shares in wei to be used for equity in the domainDAO\n   */\n  function invest() public payable {\n    require(msg.value > 0, 'Must invest some ETH become a domainDAO investor');\n    if(!investors[msg.sender]) {\n      investors[msg.sender] = true;\n      investorArray.push(msg.sender);\n      investorSharesArray.push(msg.value);\n      investorIndex[msg.sender] = investorArray.length - 1;\n    } else {\n      investorSharesArray[investorIndex[msg.sender]] += msg.value;\n    }\n    investorShares[msg.sender] += msg.value;\n    totalShares += msg.value;\n    assert(investorArray.length == investorSharesArray.length);\n  }\n\n  /**\n   * @dev Returns the amount of shares an investor owns, as well as the total shares in the domain. Used as numerator and denominator\n   */\n  function getInvestorEquity(address investor) public view returns(uint, uint) {\n    uint shares = investorShares[investor];\n    return(shares, totalShares);\n  }\n  \n  /**\n   * @dev Returns the amount of shares an investor owns, as well as the total shares in the domain. Used as numerator and denominator\n   * @param bidID unique identifier for a bid, used to query info in 3box\n   * @param smartContractFile temporary solution for deploying smart contracts dynamically once a bid is approved\n   */\n  function createBid(uint bidID, string memory smartContractFile) public payable isInvestor() bidIsUnique(bidID) {\n    for(uint i = 0; i < investorArray.length; i += 1) {\n      investorsSnapshot[bidID][investorArray[i]] = true;\n      investorSharesSnapshot[bidID][investorArray[i]] = investorSharesArray[i];\n      investorArraySnapshot[bidID] = investorArray;\n    }\n    uint halfOfShares = totalShares.div(2);\n    Bid memory bid = Bid(\n      bidID,\n      smartContractFile,\n      0,\n      0,\n      halfOfShares,\n      true\n    );\n    openBids[bidID] = bid;\n  }\n  \n  /**\n   * @dev Approves or rejects a bid, deletes all data relevant to that bid, and adds bid to approvedBids if approved\n   * @param bidID unique identifier for a bid, used to query info in 3box\n   */\n  function closeBid(uint bidID, bool approved) private returns(bool) {\n    Bid memory bid = openBids[bidID];\n    string memory smartContractFile = bid.smartContractFile;\n    \n    for(uint i = 0; i < investorArraySnapshot[bidID].length; i += 1) {\n      delete investorsSnapshot[bidID][investorArraySnapshot[bidID][i]];      // Deletes investor snapshot value at member\n      delete investorSharesSnapshot[bidID][investorArraySnapshot[bidID][i]]; // Deletes investor shares snapshot value at member\n      delete bidVoters[bidID][investorArraySnapshot[bidID][i]];              // Deletes voter mapping by member\n    }\n    \n    delete openBids[bidID];\n    delete investorArraySnapshot[bidID];\n    closedBids[bidID] = true;\n    if(approved) {\n      approvedBids.push(bidID);\n      emit BidApproved(address(this), bidID, smartContractFile, block.timestamp);\n    } else {\n      emit BidRejected(address(this), bidID, smartContractFile, block.timestamp);\n    }\n    return(true);\n  }\n  /**\n   * @dev Approves a bid, deletes all data relevant to that bid, and adds bid to approvedBids\n   * @param bidID unique identifier for a bid, used to query info in 3box\n   * @param approved bool value indicating whether the user approved the bid\n   */\n  function vote(uint bidID, bool approved)\n  public bidExists(bidID) isInvestorInBid(bidID) hasNotVoted(bidID) returns(bool)\n  {\n    Bid storage bid = openBids[bidID];\n    if(approved) {\n      bid.votesFor += investorSharesSnapshot[bidID][msg.sender];\n      bidVoters[bidID][msg.sender] = true;\n      if(bid.votesFor > bid.halfOfShares) {\n        closeBid(bidID, true);\n        return(true);\n        // return(closeBid(bidID, true));\n      } else {\n        return(false);\n      }\n    } else {\n      bid.votesAgainst += investorSharesSnapshot[bidID][msg.sender];\n      bidVoters[bidID][msg.sender] = true;\n      if(bid.votesAgainst > bid.halfOfShares) {\n        return(closeBid(bidID, false));\n      } else {\n        return(false);\n      }\n    }\n  }\n  \n  function getInvestorArraySnapshot(uint bidID) public view returns (address[] memory) {\n    return(investorArraySnapshot[bidID]);\n  }\n  \n  function getInvestorsSnapshot(uint bidID, address investor) public view returns (bool) {\n    return(investorsSnapshot[bidID][investor]);\n  }\n  \n  function getInvestorSharesSnapshot(uint bidID, address investor) public view returns (uint) {\n    return(investorSharesSnapshot[bidID][investor]);\n  }\n}\n",
  "sourcePath": "/Users/christopherfenos/Documents/code/bob/bob/packages/desktop/contracts/DomainDAO.sol",
  "compiler": {
    "name": "solc",
    "version": "0.5.11+commit.c082d0b4.Emscripten.clang"
  },
  "schemaVersion": "3.0.13",
  "updatedAt": "2019-08-24T14:39:38.247Z",
  "devdoc": {
    "methods": {
      "createBid(uint256,string)": {
        "details": "Returns the amount of shares an investor owns, as well as the total shares in the domain. Used as numerator and denominator",
        "params": {
          "bidID": "unique identifier for a bid, used to query info in 3box",
          "smartContractFile": "temporary solution for deploying smart contracts dynamically once a bid is approved"
        }
      },
      "getInvestorEquity(address)": {
        "details": "Returns the amount of shares an investor owns, as well as the total shares in the domain. Used as numerator and denominator"
      },
      "invest()": {
        "details": "Uses msg.value to add amount of shares in wei to be used for equity in the domainDAO"
      },
      "vote(uint256,bool)": {
        "details": "Approves a bid, deletes all data relevant to that bid, and adds bid to approvedBids",
        "params": {
          "approved": "bool value indicating whether the user approved the bid",
          "bidID": "unique identifier for a bid, used to query info in 3box"
        }
      }
    },
    "title": "DomainDAO - Equity based voting system managed by domain investors "
  },
  "userdoc": {
    "methods": {}
  }
}