{
  "contractName": "DomainDAO",
  "abi": [
    {
      "constant": true,
      "inputs": [
        {
          "internalType": "uint256",
          "name": "",
          "type": "uint256"
        }
      ],
      "name": "investorSharesArray",
      "outputs": [
        {
          "internalType": "uint256",
          "name": "",
          "type": "uint256"
        }
      ],
      "payable": false,
      "stateMutability": "view",
      "type": "function"
    },
    {
      "constant": true,
      "inputs": [],
      "name": "totalShares",
      "outputs": [
        {
          "internalType": "uint256",
          "name": "",
          "type": "uint256"
        }
      ],
      "payable": false,
      "stateMutability": "view",
      "type": "function"
    },
    {
      "constant": true,
      "inputs": [
        {
          "internalType": "uint256",
          "name": "",
          "type": "uint256"
        }
      ],
      "name": "approvedBids",
      "outputs": [
        {
          "internalType": "uint256",
          "name": "",
          "type": "uint256"
        }
      ],
      "payable": false,
      "stateMutability": "view",
      "type": "function"
    },
    {
      "constant": true,
      "inputs": [
        {
          "internalType": "address",
          "name": "",
          "type": "address"
        }
      ],
      "name": "investors",
      "outputs": [
        {
          "internalType": "bool",
          "name": "",
          "type": "bool"
        }
      ],
      "payable": false,
      "stateMutability": "view",
      "type": "function"
    },
    {
      "constant": true,
      "inputs": [
        {
          "internalType": "uint256",
          "name": "",
          "type": "uint256"
        }
      ],
      "name": "investorArray",
      "outputs": [
        {
          "internalType": "address payable",
          "name": "",
          "type": "address"
        }
      ],
      "payable": false,
      "stateMutability": "view",
      "type": "function"
    },
    {
      "constant": true,
      "inputs": [
        {
          "internalType": "address",
          "name": "",
          "type": "address"
        }
      ],
      "name": "investorShares",
      "outputs": [
        {
          "internalType": "uint256",
          "name": "",
          "type": "uint256"
        }
      ],
      "payable": false,
      "stateMutability": "view",
      "type": "function"
    },
    {
      "inputs": [
        {
          "internalType": "address",
          "name": "domainRegistryAddress",
          "type": "address"
        },
        {
          "internalType": "bytes32",
          "name": "domainHash",
          "type": "bytes32"
        }
      ],
      "payable": true,
      "stateMutability": "payable",
      "type": "constructor"
    },
    {
      "anonymous": false,
      "inputs": [
        {
          "indexed": false,
          "internalType": "address",
          "name": "domainAddress",
          "type": "address"
        },
        {
          "indexed": false,
          "internalType": "uint256",
          "name": "bidID",
          "type": "uint256"
        },
        {
          "indexed": false,
          "internalType": "bytes32",
          "name": "info",
          "type": "bytes32"
        },
        {
          "indexed": false,
          "internalType": "uint256",
          "name": "timestamp",
          "type": "uint256"
        }
      ],
      "name": "BidApproved",
      "type": "event"
    },
    {
      "anonymous": false,
      "inputs": [
        {
          "indexed": false,
          "internalType": "address",
          "name": "domainAddress",
          "type": "address"
        },
        {
          "indexed": false,
          "internalType": "uint256",
          "name": "bidID",
          "type": "uint256"
        },
        {
          "indexed": false,
          "internalType": "bytes32",
          "name": "info",
          "type": "bytes32"
        },
        {
          "indexed": false,
          "internalType": "uint256",
          "name": "timestamp",
          "type": "uint256"
        }
      ],
      "name": "BidRejected",
      "type": "event"
    },
    {
      "constant": true,
      "inputs": [
        {
          "internalType": "uint256",
          "name": "bidID",
          "type": "uint256"
        }
      ],
      "name": "getBid",
      "outputs": [
        {
          "internalType": "uint256",
          "name": "",
          "type": "uint256"
        },
        {
          "internalType": "bytes32",
          "name": "",
          "type": "bytes32"
        },
        {
          "internalType": "uint256",
          "name": "",
          "type": "uint256"
        },
        {
          "internalType": "uint256",
          "name": "",
          "type": "uint256"
        },
        {
          "internalType": "uint256",
          "name": "",
          "type": "uint256"
        },
        {
          "internalType": "bool",
          "name": "",
          "type": "bool"
        }
      ],
      "payable": false,
      "stateMutability": "view",
      "type": "function"
    },
    {
      "constant": false,
      "inputs": [],
      "name": "invest",
      "outputs": [],
      "payable": true,
      "stateMutability": "payable",
      "type": "function"
    },
    {
      "constant": true,
      "inputs": [
        {
          "internalType": "address",
          "name": "investor",
          "type": "address"
        }
      ],
      "name": "getInvestorEquity",
      "outputs": [
        {
          "internalType": "uint256",
          "name": "",
          "type": "uint256"
        },
        {
          "internalType": "uint256",
          "name": "",
          "type": "uint256"
        }
      ],
      "payable": false,
      "stateMutability": "view",
      "type": "function"
    },
    {
      "constant": false,
      "inputs": [
        {
          "internalType": "uint256",
          "name": "bidID",
          "type": "uint256"
        },
        {
          "internalType": "bytes32",
          "name": "info",
          "type": "bytes32"
        }
      ],
      "name": "createBid",
      "outputs": [],
      "payable": false,
      "stateMutability": "nonpayable",
      "type": "function"
    },
    {
      "constant": false,
      "inputs": [
        {
          "internalType": "uint256",
          "name": "bidID",
          "type": "uint256"
        },
        {
          "internalType": "bool",
          "name": "approved",
          "type": "bool"
        },
        {
          "internalType": "bool",
          "name": "externalCall",
          "type": "bool"
        }
      ],
      "name": "vote",
      "outputs": [
        {
          "internalType": "uint256",
          "name": "",
          "type": "uint256"
        }
      ],
      "payable": false,
      "stateMutability": "nonpayable",
      "type": "function"
    },
    {
      "constant": true,
      "inputs": [
        {
          "internalType": "uint256",
          "name": "bidID",
          "type": "uint256"
        }
      ],
      "name": "getInvestorArraySnapshot",
      "outputs": [
        {
          "internalType": "address payable[]",
          "name": "",
          "type": "address[]"
        }
      ],
      "payable": false,
      "stateMutability": "view",
      "type": "function"
    },
    {
      "constant": true,
      "inputs": [
        {
          "internalType": "uint256",
          "name": "bidID",
          "type": "uint256"
        }
      ],
      "name": "getInvestorSharesArraySnapshot",
      "outputs": [
        {
          "internalType": "uint256[]",
          "name": "",
          "type": "uint256[]"
        }
      ],
      "payable": false,
      "stateMutability": "view",
      "type": "function"
    },
    {
      "constant": true,
      "inputs": [
        {
          "internalType": "uint256",
          "name": "bidID",
          "type": "uint256"
        },
        {
          "internalType": "address",
          "name": "investor",
          "type": "address"
        }
      ],
      "name": "getInvestorsSnapshot",
      "outputs": [
        {
          "internalType": "bool",
          "name": "",
          "type": "bool"
        }
      ],
      "payable": false,
      "stateMutability": "view",
      "type": "function"
    },
    {
      "constant": true,
      "inputs": [
        {
          "internalType": "uint256",
          "name": "bidID",
          "type": "uint256"
        },
        {
          "internalType": "address",
          "name": "investor",
          "type": "address"
        }
      ],
      "name": "getInvestorSharesSnapshot",
      "outputs": [
        {
          "internalType": "uint256",
          "name": "",
          "type": "uint256"
        }
      ],
      "payable": false,
      "stateMutability": "view",
      "type": "function"
    },
    {
      "constant": true,
      "inputs": [
        {
          "internalType": "address",
          "name": "investor",
          "type": "address"
        }
      ],
      "name": "isInvestorCheck",
      "outputs": [
        {
          "internalType": "bool",
          "name": "",
          "type": "bool"
        }
      ],
      "payable": false,
      "stateMutability": "view",
      "type": "function"
    }
  ],
  "bytecode": "0x60806040526040516200252638038062002526833981810160405260408110156200002957600080fd5b81019080805190602001909291908051906020019092919050505060008290508073ffffffffffffffffffffffffffffffffffffffff16630c0da44a836040518263ffffffff167c01000000000000000000000000000000000000000000000000000000000281526004018082815260200191505060206040518083038186803b158015620000b757600080fd5b505afa158015620000cc573d6000803e3d6000fd5b505050506040513d6020811015620000e357600080fd5b8101908080519060200190929190505050156200014c576040517f08c379a0000000000000000000000000000000000000000000000000000000008152600401808060200182810382526024815260200180620025026024913960400191505060405180910390fd5b60003411620001a7576040517f08c379a000000000000000000000000000000000000000000000000000000000815260040180806020018281038252602b815260200180620024a7602b913960400191505060405180910390fd5b6000600581905550620001c86200028e640100000000026401000000009004565b8073ffffffffffffffffffffffffffffffffffffffff166392cad5b083306040518363ffffffff167c0100000000000000000000000000000000000000000000000000000000028152600401808381526020018273ffffffffffffffffffffffffffffffffffffffff1673ffffffffffffffffffffffffffffffffffffffff16815260200192505050600060405180830381600087803b1580156200026c57600080fd5b505af115801562000281573d6000803e3d6000fd5b505050505050506200054e565b60003411620002e9576040517f08c379a0000000000000000000000000000000000000000000000000000000008152600401808060200182810382526030815260200180620024d26030913960400191505060405180910390fd5b6000803373ffffffffffffffffffffffffffffffffffffffff1673ffffffffffffffffffffffffffffffffffffffff16815260200190815260200160002060009054906101000a900460ff16620004755760016000803373ffffffffffffffffffffffffffffffffffffffff1673ffffffffffffffffffffffffffffffffffffffff16815260200190815260200160002060006101000a81548160ff02191690831515021790555060023390806001815401808255809150509060018203906000526020600020016000909192909190916101000a81548173ffffffffffffffffffffffffffffffffffffffff021916908373ffffffffffffffffffffffffffffffffffffffff160217905550506004349080600181540180825580915050906001820390600052602060002001600090919290919091505550600160028054905003600160003373ffffffffffffffffffffffffffffffffffffffff1673ffffffffffffffffffffffffffffffffffffffff16815260200190815260200160002081905550620004db565b346004600160003373ffffffffffffffffffffffffffffffffffffffff1673ffffffffffffffffffffffffffffffffffffffff1681526020019081526020016000205481548110620004c357fe5b90600052602060002001600082825401925050819055505b34600360003373ffffffffffffffffffffffffffffffffffffffff1673ffffffffffffffffffffffffffffffffffffffff1681526020019081526020016000206000828254019250508190555034600560008282540192505081905550600480549050600280549050146200054c57fe5b565b611f49806200055e6000396000f3fe608060405260043610610110576000357c0100000000000000000000000000000000000000000000000000000000900480637903ec13116100a7578063d6b296b011610076578063d6b296b014610605578063df133bca14610674578063e8b5e51f146106db578063eac1b40f146106e557610110565b80637903ec13146104505780638280f772146104b9578063a80494eb14610525578063d3690b6a146105a057610110565b80633a98ef39116100e35780633a98ef39146102f75780633c889e6f146103225780636a2d0819146103985780636f7bc9be146103e757610110565b80632a38d0af146101155780632b9cff08146101a55780632f441732146101f4578063384248f214610267575b600080fd5b34801561012157600080fd5b5061014e6004803603602081101561013857600080fd5b810190808035906020019092919050505061072a565b6040518080602001828103825283818151815260200191508051906020019060200280838360005b83811015610191578082015181840152602081019050610176565b505050509050019250505060405180910390f35b3480156101b157600080fd5b506101de600480360360208110156101c857600080fd5b81019080803590602001909291905050506107cb565b6040518082815260200191505060405180910390f35b34801561020057600080fd5b5061024d6004803603604081101561021757600080fd5b8101908080359060200190929190803573ffffffffffffffffffffffffffffffffffffffff1690602001909291905050506107ec565b604051808215151515815260200191505060405180910390f35b34801561027357600080fd5b506102a06004803603602081101561028a57600080fd5b8101908080359060200190929190505050610854565b6040518080602001828103825283818151815260200191508051906020019060200280838360005b838110156102e35780820151818401526020810190506102c8565b505050509050019250505060405180910390f35b34801561030357600080fd5b5061030c6108bf565b6040518082815260200191505060405180910390f35b34801561032e57600080fd5b5061035b6004803603602081101561034557600080fd5b81019080803590602001909291905050506108c5565b6040518087815260200186815260200185815260200184815260200183815260200182151515158152602001965050505050505060405180910390f35b3480156103a457600080fd5b506103d1600480360360208110156103bb57600080fd5b8101908080359060200190929190505050610977565b6040518082815260200191505060405180910390f35b3480156103f357600080fd5b506104366004803603602081101561040a57600080fd5b81019080803573ffffffffffffffffffffffffffffffffffffffff169060200190929190505050610998565b604051808215151515815260200191505060405180910390f35b34801561045c57600080fd5b5061049f6004803603602081101561047357600080fd5b81019080803573ffffffffffffffffffffffffffffffffffffffff1690602001909291905050506109b8565b604051808215151515815260200191505060405180910390f35b3480156104c557600080fd5b50610508600480360360208110156104dc57600080fd5b81019080803573ffffffffffffffffffffffffffffffffffffffff169060200190929190505050610a0d565b604051808381526020018281526020019250505060405180910390f35b34801561053157600080fd5b5061055e6004803603602081101561054857600080fd5b8101908080359060200190929190505050610a62565b604051808273ffffffffffffffffffffffffffffffffffffffff1673ffffffffffffffffffffffffffffffffffffffff16815260200191505060405180910390f35b3480156105ac57600080fd5b506105ef600480360360208110156105c357600080fd5b81019080803573ffffffffffffffffffffffffffffffffffffffff169060200190929190505050610a9e565b6040518082815260200191505060405180910390f35b34801561061157600080fd5b5061065e6004803603604081101561062857600080fd5b8101908080359060200190929190803573ffffffffffffffffffffffffffffffffffffffff169060200190929190505050610ab6565b6040518082815260200191505060405180910390f35b34801561068057600080fd5b506106c56004803603606081101561069757600080fd5b8101908080359060200190929190803515159060200190929190803515159060200190929190505050610b11565b6040518082815260200191505060405180910390f35b6106e361100e565b005b3480156106f157600080fd5b506107286004803603604081101561070857600080fd5b8101908080359060200190929190803590602001909291905050506112c8565b005b6060600860008381526020019081526020016000208054806020026020016040519081016040528092919081815260200182805480156107bf57602002820191906000526020600020905b8160009054906101000a900473ffffffffffffffffffffffffffffffffffffffff1673ffffffffffffffffffffffffffffffffffffffff1681526020019060010190808311610775575b50505050509050919050565b600481815481106107d857fe5b906000526020600020016000915090505481565b60006006600084815260200190815260200160002060008373ffffffffffffffffffffffffffffffffffffffff1673ffffffffffffffffffffffffffffffffffffffff16815260200190815260200160002060009054906101000a900460ff16905092915050565b6060600960008381526020019081526020016000208054806020026020016040519081016040528092919081815260200182805480156108b357602002820191906000526020600020905b81548152602001906001019080831161089f575b50505050509050919050565b60055481565b6000806000806000806108d6611cc1565b600b60008981526020019081526020016000206040518060c001604052908160008201548152602001600182015481526020016002820154815260200160038201548152602001600482015481526020016005820160009054906101000a900460ff1615151515815250509050806000015181602001518260400151836060015184608001518560a001519650965096509650965096505091939550919395565b600d818154811061098457fe5b906000526020600020016000915090505481565b60006020528060005260406000206000915054906101000a900460ff1681565b60008060008373ffffffffffffffffffffffffffffffffffffffff1673ffffffffffffffffffffffffffffffffffffffff16815260200190815260200160002060009054906101000a900460ff169050919050565b6000806000600360008573ffffffffffffffffffffffffffffffffffffffff1673ffffffffffffffffffffffffffffffffffffffff168152602001908152602001600020549050806005549250925050915091565b60028181548110610a6f57fe5b906000526020600020016000915054906101000a900473ffffffffffffffffffffffffffffffffffffffff1681565b60036020528060005260406000206000915090505481565b60006007600084815260200190815260200160002060008373ffffffffffffffffffffffffffffffffffffffff1673ffffffffffffffffffffffffffffffffffffffff16815260200190815260200160002054905092915050565b600083610b1c611cc1565b600b60008381526020019081526020016000206040518060c001604052908160008201548152602001600182015481526020016002820154815260200160038201548152602001600482015481526020016005820160009054906101000a900460ff16151515158152505090508060a00151610c00576040517f08c379a000000000000000000000000000000000000000000000000000000000815260040180806020018281038252601d8152602001807f42696420646f6573206e6f74206578697374206174207468697320494400000081525060200191505060405180910390fd5b85600115156006600083815260200190815260200160002060003373ffffffffffffffffffffffffffffffffffffffff1673ffffffffffffffffffffffffffffffffffffffff16815260200190815260200160002060009054906101000a900460ff1615151480610cd25750600115156006600083815260200190815260200160002060003273ffffffffffffffffffffffffffffffffffffffff1673ffffffffffffffffffffffffffffffffffffffff16815260200190815260200160002060009054906101000a900460ff161515145b610d27576040517f08c379a000000000000000000000000000000000000000000000000000000000815260040180806020018281038252602a815260200180611ec8602a913960400191505060405180910390fd5b86600a600082815260200190815260200160002060003373ffffffffffffffffffffffffffffffffffffffff1673ffffffffffffffffffffffffffffffffffffffff16815260200190815260200160002060009054906101000a900460ff1615610ddc576040517f08c379a0000000000000000000000000000000000000000000000000000000008152600401808060200182810382526022815260200180611e4b6022913960400191505060405180910390fd5b6000600b60008a8152602001908152602001600020905060008715610e0357329050610e07565b3390505b8815610f0a57600760008b815260200190815260200160002060008273ffffffffffffffffffffffffffffffffffffffff1673ffffffffffffffffffffffffffffffffffffffff1681526020019081526020016000205482600201600082825401925050819055506001600a60008c815260200190815260200160002060008373ffffffffffffffffffffffffffffffffffffffff1673ffffffffffffffffffffffffffffffffffffffff16815260200190815260200160002060006101000a81548160ff021916908315150217905550816004015482600201541115610eff57610ef38a60016117a0565b50600196505050611003565b600396505050611003565b600760008b815260200190815260200160002060008273ffffffffffffffffffffffffffffffffffffffff1673ffffffffffffffffffffffffffffffffffffffff1681526020019081526020016000205482600301600082825401925050819055506001600a60008c815260200190815260200160002060008373ffffffffffffffffffffffffffffffffffffffff1673ffffffffffffffffffffffffffffffffffffffff16815260200190815260200160002060006101000a81548160ff021916908315150217905550816004015482600301541115610ffc57610ff08a60006117a0565b50600296505050611003565b6003965050505b505050509392505050565b60003411611067576040517f08c379a0000000000000000000000000000000000000000000000000000000008152600401808060200182810382526030815260200180611e6d6030913960400191505060405180910390fd5b6000803373ffffffffffffffffffffffffffffffffffffffff1673ffffffffffffffffffffffffffffffffffffffff16815260200190815260200160002060009054906101000a900460ff166111f15760016000803373ffffffffffffffffffffffffffffffffffffffff1673ffffffffffffffffffffffffffffffffffffffff16815260200190815260200160002060006101000a81548160ff02191690831515021790555060023390806001815401808255809150509060018203906000526020600020016000909192909190916101000a81548173ffffffffffffffffffffffffffffffffffffffff021916908373ffffffffffffffffffffffffffffffffffffffff160217905550506004349080600181540180825580915050906001820390600052602060002001600090919290919091505550600160028054905003600160003373ffffffffffffffffffffffffffffffffffffffff1673ffffffffffffffffffffffffffffffffffffffff16815260200190815260200160002081905550611256565b346004600160003373ffffffffffffffffffffffffffffffffffffffff1673ffffffffffffffffffffffffffffffffffffffff168152602001908152602001600020548154811061123e57fe5b90600052602060002001600082825401925050819055505b34600360003373ffffffffffffffffffffffffffffffffffffffff1673ffffffffffffffffffffffffffffffffffffffff1681526020019081526020016000206000828254019250508190555034600560008282540192505081905550600480549050600280549050146112c657fe5b565b600115156000803373ffffffffffffffffffffffffffffffffffffffff1673ffffffffffffffffffffffffffffffffffffffff16815260200190815260200160002060009054906101000a900460ff16151514806113755750600115156000803273ffffffffffffffffffffffffffffffffffffffff1673ffffffffffffffffffffffffffffffffffffffff16815260200190815260200160002060009054906101000a900460ff161515145b6113e7576040517f08c379a000000000000000000000000000000000000000000000000000000000815260040180806020018281038252601f8152602001807f55736572206d75737420626520696e76657374656420696e20646f6d61696e0081525060200191505060405180910390fd5b816113f0611cc1565b600b60008381526020019081526020016000206040518060c001604052908160008201548152602001600182015481526020016002820154815260200160038201548152602001600482015481526020016005820160009054906101000a900460ff16151515158152505090508060a00151156114b8576040517f08c379a0000000000000000000000000000000000000000000000000000000008152600401808060200182810382526023815260200180611ef26023913960400191505060405180910390fd5b600c600083815260200190815260200160002060009054906101000a900460ff161561152f576040517f08c379a000000000000000000000000000000000000000000000000000000000815260040180806020018281038252602b815260200180611e9d602b913960400191505060405180910390fd5b60008090505b6002805490508110156116d85760016006600087815260200190815260200160002060006002848154811061156657fe5b9060005260206000200160009054906101000a900473ffffffffffffffffffffffffffffffffffffffff1673ffffffffffffffffffffffffffffffffffffffff1673ffffffffffffffffffffffffffffffffffffffff16815260200190815260200160002060006101000a81548160ff021916908315150217905550600481815481106115ef57fe5b90600052602060002001546007600087815260200190815260200160002060006002848154811061161c57fe5b9060005260206000200160009054906101000a900473ffffffffffffffffffffffffffffffffffffffff1673ffffffffffffffffffffffffffffffffffffffff1673ffffffffffffffffffffffffffffffffffffffff168152602001908152602001600020819055506002600860008781526020019081526020016000209080546116a8929190611cfc565b506004600960008781526020019081526020016000209080546116cc929190611d4e565b50600181019050611535565b5060006116f16002600554611c3290919063ffffffff16565b90506116fb611cc1565b6040518060c00160405280878152602001868152602001600081526020016000815260200183815260200160011515815250905080600b6000888152602001908152602001600020600082015181600001556020820151816001015560408201518160020155606082015181600301556080820151816004015560a08201518160050160006101000a81548160ff021916908315150217905550905050505050505050565b60006117aa611cc1565b600b60008581526020019081526020016000206040518060c001604052908160008201548152602001600182015481526020016002820154815260200160038201548152602001600482015481526020016005820160009054906101000a900460ff161515151581525050905060008160200151905060008090505b6008600087815260200190815260200160002080549050811015611a3b5760066000878152602001908152602001600020600060086000898152602001908152602001600020838154811061187757fe5b9060005260206000200160009054906101000a900473ffffffffffffffffffffffffffffffffffffffff1673ffffffffffffffffffffffffffffffffffffffff1673ffffffffffffffffffffffffffffffffffffffff16815260200190815260200160002060006101000a81549060ff021916905560076000878152602001908152602001600020600060086000898152602001908152602001600020838154811061191f57fe5b9060005260206000200160009054906101000a900473ffffffffffffffffffffffffffffffffffffffff1673ffffffffffffffffffffffffffffffffffffffff1673ffffffffffffffffffffffffffffffffffffffff16815260200190815260200160002060009055600a600087815260200190815260200160002060006008600089815260200190815260200160002083815481106119bb57fe5b9060005260206000200160009054906101000a900473ffffffffffffffffffffffffffffffffffffffff1673ffffffffffffffffffffffffffffffffffffffff1673ffffffffffffffffffffffffffffffffffffffff16815260200190815260200160002060006101000a81549060ff0219169055600181019050611826565b50600b600086815260200190815260200160002060008082016000905560018201600090556002820160009055600382016000905560048201600090556005820160006101000a81549060ff02191690555050600860008681526020019081526020016000206000611aad9190611da0565b600960008681526020019081526020016000206000611acc9190611dc1565b6001600c600087815260200190815260200160002060006101000a81548160ff0219169083151502179055508315611baa57600d8590806001815401808255809150509060018203906000526020600020016000909192909190915055507f29c04e8f3f58ab01c78aa0477277a7b1ec0127f1b49dbf40f8c11592cee8963230868342604051808573ffffffffffffffffffffffffffffffffffffffff1673ffffffffffffffffffffffffffffffffffffffff16815260200184815260200183815260200182815260200194505050505060405180910390a1611c26565b7f48731106a8e5793816caffa05ed691266269f5e264f4faa889605b52e39e340330868342604051808573ffffffffffffffffffffffffffffffffffffffff1673ffffffffffffffffffffffffffffffffffffffff16815260200184815260200183815260200182815260200194505050505060405180910390a15b60019250505092915050565b6000808211611ca9576040517f08c379a000000000000000000000000000000000000000000000000000000000815260040180806020018281038252601a8152602001807f536166654d6174683a206469766973696f6e206279207a65726f00000000000081525060200191505060405180910390fd5b6000828481611cb457fe5b0490508091505092915050565b6040518060c0016040528060008152602001600080191681526020016000815260200160008152602001600081526020016000151581525090565b828054828255906000526020600020908101928215611d3d5760005260206000209182015b82811115611d3c578254825591600101919060010190611d21565b5b509050611d4a9190611de2565b5090565b828054828255906000526020600020908101928215611d8f5760005260206000209182015b82811115611d8e578254825591600101919060010190611d73565b5b509050611d9c9190611e25565b5090565b5080546000825590600052602060002090810190611dbe9190611e25565b50565b5080546000825590600052602060002090810190611ddf9190611e25565b50565b611e2291905b80821115611e1e57600081816101000a81549073ffffffffffffffffffffffffffffffffffffffff021916905550600101611de8565b5090565b90565b611e4791905b80821115611e43576000816000905550600101611e2b565b5090565b9056fe557365722068617320616c726561647920766f746564206f6e2074686973206269644d75737420696e7665737420736f6d6520455448206265636f6d65206120646f6d61696e44414f20696e766573746f72426964207769746820746869732049442065786973747320616e6420686173206265656e20636c6f73656455736572206d75737420626520696e766573746564207768656e20626964207761732063726561746564426964207769746820746869732049442065786973747320616e64206973206f70656ea265627a7a72315820d886adde85e1c485b75bbeb54821641da366b5281882c4c0a9be885201d7cf4064736f6c634300050b00324d75737420696e7665737420736f6d652045544820746f206465706c6f79206120646f6d61696e2044414f4d75737420696e7665737420736f6d6520455448206265636f6d65206120646f6d61696e44414f20696e766573746f72446f6d61696e44414f20616c72656164792065786973747320617420746869732055524c",
  "source": "pragma solidity ^0.5.11;\n\n// import \"https://github.com/OpenZeppelin/openzeppelin-contracts/contracts/math/SafeMath.sol\";\nimport \"openzeppelin-solidity/contracts/math/SafeMath.sol\";\n// import \"./SafeMath.sol\";\nimport \"./DomainRegistry.sol\";\n\n/**\n * @title DomainDAO - Equity based voting system managed by domain investors\n *\n */\n\ncontract DomainDAO {\n  using SafeMath for uint;\n  mapping(address => bool) public investors;\n  mapping(address => uint) internal investorIndex;\n  address payable[] public investorArray;\n  mapping(address => uint) public investorShares; // Equity is counted as shares, (1 wei = 1 share, taken from msg.value in invest())\n  uint[] public investorSharesArray;\n  uint public totalShares;\n  \n  mapping(uint => mapping(address => bool)) investorsSnapshot;      // Investors in domainDAO when bid is initiated, by bidID\n  mapping(uint => mapping(address => uint)) investorSharesSnapshot; // Shares that each investor has when bid is initiated, by bidID\n  mapping(uint => address payable[]) investorArraySnapshot;                 // Array of investor addresses when bid is initiated, by bidID\n  mapping(uint => uint[]) investorSharesArraySnapshot;                 // Array of investor addresses when bid is initiated, by bidID\n  mapping(uint => mapping(address => bool)) bidVoters;              // Investors that have voted for a bid\n  \n  mapping(uint => Bid) openBids;\n  mapping(uint => bool) closedBids;\n  uint[] public approvedBids;\n  \n  event BidApproved(address domainAddress, uint bidID, bytes32 info, uint timestamp);\n  event BidRejected(address domainAddress, uint bidID, bytes32 info, uint timestamp);\n\n  constructor(address domainRegistryAddress, bytes32 domainHash) public payable {\n    DomainRegistry domainRegistry = DomainRegistry(domainRegistryAddress);\n    require(!domainRegistry.domainExists(domainHash), 'DomainDAO already exists at this URL');\n    require(msg.value > 0, 'Must invest some ETH to deploy a domain DAO');\n    totalShares = 0;\n    invest();\n    domainRegistry.addDomain(domainHash, address(this));\n  }\n  \n  modifier isInvestor() {\n    require(investors[msg.sender] == true || investors[tx.origin] == true, 'User must be invested in domain');\n    _;\n  }\n  \n  modifier isInvestorInBid(uint bidID) {\n    require(\n      investorsSnapshot[bidID][msg.sender] == true || investorsSnapshot[bidID][tx.origin] == true,\n      'User must be invested when bid was created'\n    );\n    _;\n  }\n\n  modifier bidExists(uint bidID) {\n    Bid memory bid = openBids[bidID];\n    require(bid.exists, 'Bid does not exist at this ID');\n    _;\n  }\n  \n  modifier bidIsUnique(uint bidID) {\n    Bid memory bid = openBids[bidID];\n    require(!bid.exists, 'Bid with this ID exists and is open');\n    require(!closedBids[bidID], 'Bid with this ID exists and has been closed');\n    _;\n  }\n  \n  modifier hasNotVoted(uint bidID) {\n    require(!bidVoters[bidID][msg.sender], 'User has already voted on this bid');\n    _;\n  }\n  \n  struct Bid {\n    uint bidID;   // MAKE bytes32, will be used for graphQL query on domain space for bid info\n    bytes32 info; // Temporarily using JSON to contain info about smart contracts to deploy, will make more robust solution later\n    uint votesFor;\n    uint votesAgainst;\n    uint halfOfShares;\n    bool exists;\n  }\n  \n  function getBid(uint bidID) public view returns (uint, bytes32, uint, uint, uint, bool) {\n    Bid memory bid = openBids[bidID];\n    return(bid.bidID, bid.info, bid.votesFor, bid.votesAgainst, bid.halfOfShares, bid.exists);\n  }\n\n  /**\n   * @dev Uses msg.value to add amount of shares in wei to be used for equity in the domainDAO\n   */\n  function invest() public payable {\n    require(msg.value > 0, 'Must invest some ETH become a domainDAO investor');\n    if(!investors[msg.sender]) {\n      investors[msg.sender] = true;\n      investorArray.push(msg.sender);\n      investorSharesArray.push(msg.value);\n      investorIndex[msg.sender] = investorArray.length - 1;\n    } else {\n      investorSharesArray[investorIndex[msg.sender]] += msg.value;\n    }\n    investorShares[msg.sender] += msg.value;\n    totalShares += msg.value;\n    assert(investorArray.length == investorSharesArray.length);\n  }\n\n  /**\n   * @dev Returns the amount of shares an investor owns, as well as the total shares in the domain. Used as numerator and denominator\n   */\n  function getInvestorEquity(address investor) public view returns(uint, uint) {\n    uint shares = investorShares[investor];\n    return(shares, totalShares);\n  }\n  \n  /**\n   * @dev Returns the amount of shares an investor owns, as well as the total shares in the domain. Used as numerator and denominator\n   * @param bidID unique identifier for a bid, used to query info in 3box\n   * @param info JSON information about a bid\n   */\n  function createBid(uint bidID, bytes32 info) public isInvestor() bidIsUnique(bidID) {\n    for(uint i = 0; i < investorArray.length; i += 1) {\n      investorsSnapshot[bidID][investorArray[i]] = true;\n      investorSharesSnapshot[bidID][investorArray[i]] = investorSharesArray[i];\n      investorArraySnapshot[bidID] = investorArray;\n      investorSharesArraySnapshot[bidID] = investorSharesArray;\n    }\n    uint halfOfShares = totalShares.div(2);\n    Bid memory bid = Bid(\n      bidID,\n      info,\n      0,\n      0,\n      halfOfShares,\n      true\n    );\n    openBids[bidID] = bid;\n  }\n  \n  /**\n   * @dev Approves or rejects a bid, deletes all data relevant to that bid, and adds bid to approvedBids if approved\n   * @param bidID unique identifier for a bid, used to query info in 3box\n   */\n  function closeBid(uint bidID, bool approved) private returns(bool) {\n    Bid memory bid = openBids[bidID];\n    bytes32 info = bid.info;\n    \n    for(uint i = 0; i < investorArraySnapshot[bidID].length; i += 1) {\n      delete investorsSnapshot[bidID][investorArraySnapshot[bidID][i]];      // Deletes investor snapshot value at member\n      delete investorSharesSnapshot[bidID][investorArraySnapshot[bidID][i]]; // Deletes investor shares snapshot value at member\n      delete bidVoters[bidID][investorArraySnapshot[bidID][i]];              // Deletes voter mapping by member\n    }\n    \n    delete openBids[bidID];\n    delete investorArraySnapshot[bidID];\n    delete investorSharesArraySnapshot[bidID];\n    closedBids[bidID] = true;\n    if(approved) {\n      approvedBids.push(bidID);\n      emit BidApproved(address(this), bidID, info, block.timestamp);\n    } else {\n      emit BidRejected(address(this), bidID, info, block.timestamp);\n    }\n    return(true);\n  }\n  \n  /**\n   * @dev Approves a bid, deletes all data relevant to that bid, and adds bid to approvedBids\n   * @param bidID unique identifier for a bid, used to query info in 3box\n   * @param approved bool value indicating whether the user approved the bid\n   */\n  function vote(uint bidID, bool approved, bool externalCall)\n  public bidExists(bidID) isInvestorInBid(bidID) hasNotVoted(bidID) returns(uint)\n  {\n    Bid storage bid = openBids[bidID];\n    address voter; // Since some calls are coming froom smart contracts, we must use tx.origin instead\n    if(externalCall) {\n        voter = tx.origin;\n    } else {\n        voter = msg.sender;\n    }\n    if(approved) {\n      bid.votesFor += investorSharesSnapshot[bidID][voter];\n      bidVoters[bidID][voter] = true;\n      if(bid.votesFor > bid.halfOfShares) {\n        closeBid(bidID, true);\n        return(1); // Approved\n      } else {\n        return(3); // Not approved\n      }\n    } else {\n      bid.votesAgainst += investorSharesSnapshot[bidID][voter];\n      bidVoters[bidID][voter] = true;\n      if(bid.votesAgainst > bid.halfOfShares) {\n        closeBid(bidID, false);\n        return(2); // Rejected\n      } else {\n        return(3); // Not rejected\n      }\n    }\n  }\n  \n  function getInvestorArraySnapshot(uint bidID) public view returns (address payable[] memory) {\n    return(investorArraySnapshot[bidID]);\n  }\n  \n  function getInvestorSharesArraySnapshot(uint bidID) public view returns (uint[] memory) {\n    return(investorSharesArraySnapshot[bidID]);\n  }\n  \n  function getInvestorsSnapshot(uint bidID, address investor) public view returns (bool) {\n    return(investorsSnapshot[bidID][investor]);\n  }\n  \n  function getInvestorSharesSnapshot(uint bidID, address investor) public view returns (uint) {\n    return(investorSharesSnapshot[bidID][investor]);\n  }\n  \n  function isInvestorCheck(address investor) public view returns (bool) {\n    return(investors[investor]);\n  }\n}\n",
  "sourcePath": "/Users/christopherfenos/Documents/code/bob/bob/packages/desktop/contracts/DomainDAO.sol",
  "compiler": {
    "name": "solc",
    "version": "0.5.11+commit.c082d0b4.Emscripten.clang"
  },
  "schemaVersion": "3.0.13",
  "updatedAt": "2019-08-24T15:36:30.592Z",
  "devdoc": {
    "methods": {
      "createBid(uint256,bytes32)": {
        "details": "Returns the amount of shares an investor owns, as well as the total shares in the domain. Used as numerator and denominator",
        "params": {
          "bidID": "unique identifier for a bid, used to query info in 3box",
          "info": "JSON information about a bid"
        }
      },
      "getInvestorEquity(address)": {
        "details": "Returns the amount of shares an investor owns, as well as the total shares in the domain. Used as numerator and denominator"
      },
      "invest()": {
        "details": "Uses msg.value to add amount of shares in wei to be used for equity in the domainDAO"
      },
      "vote(uint256,bool,bool)": {
        "details": "Approves a bid, deletes all data relevant to that bid, and adds bid to approvedBids",
        "params": {
          "approved": "bool value indicating whether the user approved the bid",
          "bidID": "unique identifier for a bid, used to query info in 3box"
        }
      }
    },
    "title": "DomainDAO - Equity based voting system managed by domain investors "
  },
  "userdoc": {
    "methods": {}
  }
}