{
  "contractName": "DomainRegistry",
  "abi": [
    {
      "constant": true,
      "inputs": [
        {
          "internalType": "bytes32",
          "name": "",
          "type": "bytes32"
        }
      ],
      "name": "deployedDomains",
      "outputs": [
        {
          "internalType": "address",
          "name": "",
          "type": "address"
        }
      ],
      "payable": false,
      "stateMutability": "view",
      "type": "function"
    },
    {
      "constant": false,
      "inputs": [
        {
          "internalType": "bytes32",
          "name": "domainHash",
          "type": "bytes32"
        },
        {
          "internalType": "address",
          "name": "domainAddress",
          "type": "address"
        }
      ],
      "name": "addDomain",
      "outputs": [],
      "payable": false,
      "stateMutability": "nonpayable",
      "type": "function"
    },
    {
      "constant": true,
      "inputs": [
        {
          "internalType": "bytes32",
          "name": "domainHash",
          "type": "bytes32"
        }
      ],
      "name": "domainExists",
      "outputs": [
        {
          "internalType": "bool",
          "name": "",
          "type": "bool"
        }
      ],
      "payable": false,
      "stateMutability": "view",
      "type": "function"
    },
    {
      "constant": true,
      "inputs": [
        {
          "internalType": "bytes32",
          "name": "domainHash",
          "type": "bytes32"
        }
      ],
      "name": "getDomainAddress",
      "outputs": [
        {
          "internalType": "address",
          "name": "",
          "type": "address"
        }
      ],
      "payable": false,
      "stateMutability": "view",
      "type": "function"
    }
  ],
  "bytecode": "0x608060405234801561001057600080fd5b50610342806100206000396000f3fe608060405234801561001057600080fd5b5060043610610069576000357c0100000000000000000000000000000000000000000000000000000000900480630c0da44a1461006e5780634f627fc0146100b457806392cad5b014610122578063bc51c0ad14610170575b600080fd5b61009a6004803603602081101561008457600080fd5b81019080803590602001909291905050506101de565b604051808215151515815260200191505060405180910390f35b6100e0600480360360208110156100ca57600080fd5b8101908080359060200190929190505050610249565b604051808273ffffffffffffffffffffffffffffffffffffffff1673ffffffffffffffffffffffffffffffffffffffff16815260200191505060405180910390f35b61016e6004803603604081101561013857600080fd5b8101908080359060200190929190803573ffffffffffffffffffffffffffffffffffffffff16906020019092919050505061027c565b005b61019c6004803603602081101561018657600080fd5b81019080803590602001909291905050506102d1565b604051808273ffffffffffffffffffffffffffffffffffffffff1673ffffffffffffffffffffffffffffffffffffffff16815260200191505060405180910390f35b60008073ffffffffffffffffffffffffffffffffffffffff1660008084815260200190815260200160002060009054906101000a900473ffffffffffffffffffffffffffffffffffffffff1673ffffffffffffffffffffffffffffffffffffffff1614159050919050565b60006020528060005260406000206000915054906101000a900473ffffffffffffffffffffffffffffffffffffffff1681565b8060008084815260200190815260200160002060006101000a81548173ffffffffffffffffffffffffffffffffffffffff021916908373ffffffffffffffffffffffffffffffffffffffff1602179055505050565b600080600083815260200190815260200160002060009054906101000a900473ffffffffffffffffffffffffffffffffffffffff16905091905056fea265627a7a72315820a378b183233b9ea0b8d8324f5cdde4454338f2b9d8f29147b9f2da3f8ed782bc64736f6c634300050b0032",
  "source": "pragma solidity ^0.5.11;\n\n/**\n * @title DomainRegistry - Used as a universal registry to store deployed domainDAOs.\n *\n */\n\ncontract DomainRegistry {\n  mapping(bytes32 => address) public deployedDomains;\n\n  function addDomain(bytes32 domainHash, address domainAddress) public {\n      deployedDomains[domainHash] = domainAddress;\n  }\n  \n  function domainExists(bytes32 domainHash) public view returns(bool) {\n      return(deployedDomains[domainHash] != address(0x0));\n  }\n  \n  function getDomainAddress(bytes32 domainHash) public view returns(address) {\n      return(deployedDomains[domainHash]);\n  }\n}",
  "sourcePath": "/Users/christopherfenos/Documents/code/bob/bob/packages/desktop/contracts/DomainRegistry.sol",
  "compiler": {
    "name": "solc",
    "version": "0.5.11+commit.c082d0b4.Emscripten.clang"
  },
  "schemaVersion": "3.0.13",
  "updatedAt": "2019-08-24T15:36:30.600Z",
  "devdoc": {
    "methods": {},
    "title": "DomainRegistry - Used as a universal registry to store deployed domainDAOs. "
  },
  "userdoc": {
    "methods": {}
  }
}